S1132400001E0131013068FC065C0101306C0000E3
S1132410000000000005B5010D5201318001306358
S11324200130603068026AF0000000000000000122
S1132430306503FA010267B20000300130663101F1
S1132440306600002447FA004204026C7E0000005B
S11324504F00013066000000000000000000000092
S1132460032D000129890000020000000000009FE4
S11324700000000000000102009E00009F00000018
S11324800000013EBC026C4900F002740D067F029C
S1132490740D067F02735D060700390146FB0404D0
S11324A07F820000F00107D8050200000025743D7A
S11324B007D80502297A01297C01297D00020064DC
S11324C00000010000000301306D00000000000066
S11324D000000000000124E30124E60124DE0124BD
S11324E0EF0002013072026C6A0124FA0124FE003A
S11324F00000000000000000056700000017000055
S1132500000301306D01250C07E80418056700017C
S1132510306600000000000000003E003E3E000067
S113252000000125FA00256301256B00050005FF65
S1132530FF0001408F9A8000040125640000000020
S1132540FFFFFFFF00000003000000000000000088
S1132550000000000A42BAE9C00125E80125E802AA
S11325606CC8004139332E343536353239350000E4
S11325E000003039393730300002682F076E7D0122
S11325F025FA0125F50126020003012DE902682AC6
S1132600000000600001857B000000000000000065
S113261000000000000000013066012DE9000AFFFF
S1132620FF277EC000000126473F7F40004780000F
S113263000006000000000FF012775FF40076E7571
S1132640067F013067076E75C0000047C2BD840075
S1132650000000600001857B0060FF4009012775D0
S1132660342E0060FF4002A5013345012775A504FF
S11326700F0001317D412C3136353D39362E393943
S11326803730370000202000000000000000000068
S1132770000000000039362E3939373037000000A8
S1132780000000000000070256040068CAB15604A5
S11327900063FFFD0000000001013166020000003B
S11327B00000000000000002740D076E75067F0122
S11327C031640000000000000000000100013067D7
S11327D00003035701306700000000000000000000
S11327E00131660000003E00000127F08000000077
S11327F00D00040130630D00013060010031000060
S11328003836330037003236003046443031303801
S1132810303230343031000000000000000000008D
S11328F000000000000000012DE6000000026B7ED5
S1132900012CF4026B7E012CF433161635323D3162
S1132910000000000000000000003401000100007D
S1132920000F0001316600044080000000013066A1
S113293000000001316600000000000000000000FB
S1132960000000000000000000000000066DE5000B
S1132970000000002E3800012AC207D805020025F5
S1132980743D002500000001220102412C32323D39
S113299033340A000000000000000000412C3130F4
S11329A0323D3235382E33343238390A442C383DEE
S11329B0300A442C33303D370A562C31333D330A28
S11329C0562C32313D3333332E38303539300A56B4
S11329D02C32303D302E303030300A562C36303DDB
S11329E03736322E303031350A562C36313D3237B7
S11329F02E373737380A562C36323D36302E3030A3
S1132A0030300A562C36333D31352E323030300AD0
S1132A10562C39393D300A562C3130303D3632305F
S1132A200A562C3131303D30303035313720313495
S1132A303A32360A562C3131313D31303034330A92
S1132A40562C3131333D3632382D30372E30360A5C
S1132A50562C3131343D36330A562C3131353D3321
S1132A60323833310A562C3131363D33310A562C43
S1132A703138373D302E303030300A562C35323D27
S1132A80300A562C36353D3130302E383836360A39
S1132A90562C36363D3130302E383836360A562CE0
S1132AA036373D3233342E303239320A562C3638EA
S1132AB03D3233342E303239320A582C36383D31D7
S1132AC0350A412C32323D33340A00323D33340A64
S1132AD00000312E363835350A562C35333D323028
S1132AE031312E303931320A562C35343D31302EC5
S1132AF0343735390A562C35353D312E30303030A7
S1132B00300A562C34343D363830300A562C34359D
S1132B103D3630373930322E30383939310A562C77
S1132B2034363D3332373435322E32333035320A8F
S1132B30562C34373D3231382E39303731390A5634
S1132B402C34383D3333332E38303539340A562C4F
S1132B5035313D37302E313937320A562C35323D36
S1132B60370A562C36353D3130302E383836360A51
S1132B70562C36363D3130302E383836360A562CFF
S1132B8036373D3233342E303239320A562C363809
S1132B903D3233342E303239320A582C36383D31F6
S1132BA0350A412C32323D3139340A003139340A84
S1132BF000000000002000003234302E38FFFF00B7
S1132C0000000000000000000000000002694C0108
S1132C103160000400000001306E50483130003053
S1132C203500000048313000012574E100640000E3
S1132C30000A000500000000000000000000000081
S1132C70020000000000000000000000000000004E
S1132C8042C82B51000000000000000000000000BA
S1132CC0000000000000000001316242D195620161
S1132CD0013066076E7502740D067F0130670000CF
S1132CE000000000000000000000013066013317FE
S1132CF007012CF40133164154242443310000000D
S1132D00000000000000000000000000000001308E
S1132D106700C200026AC4000901316F026AC30974
S1132D2042BAE9C0013166013175000000000000BB
S1132D30000000000000000000000000000003008C
S1132D40000000000101331600013067000000009C
S1132D50000100015701306600010001570130668F
S1132D6000015701306600012ABF00000000000185
S1132D70000131660001306700013166080001007E
S1132D800000000000000A2D9D31012D9D012D94AD
S1132D900130673100000000640000384001306CED
S1132DA0000000000A0001306700013166000000E5
S1132DC00000000000409FD7A2000131660000000F
S1132DD000000000000000000130670001306700BF
S1132DE0000001306702302E01306000000D000049
S1132DF00657007F0502040C040206013060012E10
S1132E0006012E04007F013067013060013060014B
S1132E10306000000000000000000000000000001E
S1132E20000000000000000000000000000D013060
S1132E30600130600000000000000000000000009D
S1132EE0000000000000012DE60001300B0000008E
S113300000000000000000000000000003000000B9
S1133020006487ED5100028F5C2901010A0300004E
S1133030000012400000000000000000000000003A
S1133050001E010017010000000000000000000035
S11330604F562A0032373D363436333600000000DE
S1133160002C3136363D39392E39303836370A415C
S11331702C3136353D39362E393937303700000099
S113326000010001860C620191C1B200000000005F
S11332700300000000000000000000000000000047
S1133310000000000001002E36002E36003034007C
S113332031352E36002E360000000000000000006B
S113333000000000010100010003FA0142A604019B
S113334091C1B1A50401860C621F057B04F02E2EE9
S113335000270021001A006606C3051F057B04F040
S1133360D341003B0034002E006606C3051F057BD5
S113337004F0D341003B0034002E006606C3051F51
S1133380057B04F0A58200760069005C006606C334
S1133390051F057B04F0A58200760069005C0066C9
S11333A006C3051F057B04F0B40000000000000CF8
S11333B04400000008000000000000147100000038
S11333C0D7FFFFFF00000028FFFFFFFF02000000FF
S11333D00000004002000000FDFFFFFF00000000AD
S11334300000000000000000000000000000002563
S11334408B0905690000003F0D4F562A0D52472C89
S11334503132370D57472C3132373D363436333617
S11334600D4F562A0D00000000000000000000006F
S11335400000000000000031313E300D0A363238F0
S11335502D30372E30360D0A3E33300D0A3E3132CF
S1133560373D343836310D0A3E302E303E000000EF
S1133640000000000000003632362D30362E3034B3
S11336502C31352E360D302C302E360D31352C30A4
S11336602E360D3632362D30362E30342C31352E62
S1133670360D302C302E360D31352C302E360D30A3
S113368031303230352031323A35392C31352E361D
S11336900D31352C302E360D302C302E360D313583
S11336A02C302E360D3632362D30362E30342C3129
S11336B0352E360D302C302E360D31352C302E363D
S11336C00D302E360D302E360D302E360D302E3672
S11336D00D302E3604000000000000000000000041
S113374000000000000000415449300D4154533141
S113375030303F0D4154533130313F0D41544930E5
S11337600D4154533130303F0D4154533130313FCA
S11337700D415449320D41545336303F0D41545399
S11337803130303F0D4154533130313F0D415449B4
S1133790300D4154533130303F0D415453313031A9
S11337A03F0D41545335313D310D41545335323D74
S11337B0310D4154242443310D41544B31300D41DA
S11337C05453333D340D000000000000000000009D
S113384000000000000000000012FD00131300013E
S1133850027CFB0113130001027D0A021313FFFF14
S1133860027D130313130001027D1C0413130001D2
S1133870027D25064C4BFFFF027D820713130001D6
S1133880027D340813130001027D3D091313FFFF69
S1133890027D460C2626FFFF027D550DBEBC0001AD
S11338A0027D820E4C4B0001027DA90F4C4B00019E
S11338B0027DB81013130001027DC111131300011E
S11338C0027DCA144C4B0001027DE515131300015F
S11338D0027DEE50562C3200000000000000000073
S11338E00000000050562C31373D3100000000002C
S11338F0000000000050562C31373D33000000001A
S113390000000000000031302E36000000000000EE
S113391000000000000000000700FFFFFFFFFFFFA2
S113392001FF027E49027E4C027E53027E56027ED5
S11339305B027E60027E65027E6812FD476C0000B9
S1133C5000000000040EDBC20000000000000000B1
S1133C60000000000000000000000001DA00000372
S1133C7050000000000000000000000000000000F0
S1133C8000000020000010030000000000000000FD
S1133C900000000000000000000000090A0FFD0100
S1133CA0FD01FB00FD01080204010000000000000A
S1133D50000000003638303300000000000000008E
S1133D6000000000003630373836362E3533303018
S1133D703500000000003332373531322E37373901
S1133D80343600000000003232302E3235383637F7
S1133D9000390000000000003638303000003000E8
S1133DA00000000000000000003630373930322EA9
S1133DB030383939310000000000333237343532BD
S1133DC02E323330353200000000003231382E39C3
S1133DD03037313900390000000000003333332E0E
S1133DE03830353934000000000000000032353826
S1133DF02E333432393900000000000000003FD770
S1133E00C01A428C64F200323031312E30393132F2
S1133E10000000000000000031302E343735390036
S1133E20500000000000000000312E3030303030EF
S1133E3000000000000000000000443E801941BF63
S1133E401C784270000041733333001F801F001F31
S1133E500017D76FFFEA98EEA5000000B9053E50A1
S1133E602E000400000000000000000000000023F9
S1133E70000001680000000000000000000042C9CA
S1133E80C5F042C9C5F0436A077A436A077A00005D
S1133E9000004000000000000000000000000000DE
S1133EA0000000000000000000000000000000020C
S1133EB00101003632362D30362E30340000000039
S1133EC0000000003031303230352031323A35399B
S1133ED0000000000001000F04043E01001E000069
S1133EE001000001D9000001D9000001F90000001F
S1133EF00100258B0905670029065C2626032D0091
S1133F0023D2FFFF00FFE27AFFF80000003F0EFF1C
S1133F10FF0000000000000000000000000000009E
S1133FF00000000000000000000000000000005568
S1134000E27A0248000254D0024B6C024B6D024B20
S113401070024B6E024B6F024BBD0000000023D2B6
S11341000206065C0126260A022102A802F8036BB5
S11341100442300000000000000000000000000025
S11341200000000500000000000000000000000086
S11341300000000000780000000000000000000003
S1134150000000000000FFFFF3EB0500000000007A
S11341600000000000003630382D30342E3030206E
S11341702000000000000000103630362D303420BE
S1134180202000000000000000003630322D3035C1
S11341902E303200000000000000003630342D3094
S11341A0322E30312020200000000000303830351D
S11341B03032000000000000000000000000026C2B
S11341C03630313030383600000000000000000086
S11341D00036303000000000000000000000000045
S11341E000003130303433000000000000000000D3
S11341F0000000533030323238000000000000006C
S1134200000000005330303232370000000000005C
S1134210000000000033303231333700000000006A
S1134220000000000000300000000000000000005A
S1134230000000000000003000000000000000004A
S113424000000000000000004E4F434C55450000A4
S1134250000000000000000000300000000000002A
S113426000000000000000000000FE6B1FDDFFCC1A
S1134270CCDDFFCA234A000295EA000A09030000C4
S11342804168A0A0020000C5F2FF00891D000006DD
S113429005000093FFFFFF0B2C00004EE3FFFF29F6
S11342A002000001FDFFFF1A39000081FEFFFF2D0F
S11342B0FDFFFF1CACFFFF0E0D000155FAFFFF9D33
S11342C0000000CD190000CFB9FFFF170300004024
S11342D00200002D0100001F39000000000001C190
S11342E00000002900000000000004EFFFFFFFFFB2
S11342F0FFFFFF0000000C3D000000020000000072
S113430000001468000000F5FFFFFF00000028FF14
S1134310FFFFFF020000000000004003000000FC5B
S1134320FFFFFF000000000000000000000000008C
S1134380000006A021030000F6F4FF00EE1A00006E
S1134390820500007E0000007B2E0000FCE3FFFF8E
S11343A0E10200006FFDFFFF6139000055FEFFFFD1
S11343B066FDFFFF6FB0FFFFDF0A00013EFAFFFF5B
S11343C0AEFFFFFFC0180000BBBBFFFFAF02000041
S11343D0F4020000640100005C39000000000001E8
S11343E07BFFFFFF4D00000000000004E8FFFFFF1B
S11343F0000000000000000C440000000800000061
S11344000000001471000000D7FFFFFF0000002827
S1134410FFFFFFFF02000000000000400200000058
S1134420FDFFFFFF0000000000000000000000008E
S11344800000000628008CBE4D05A7A55A00199906
S11344909A001EB852001EB852000083120003D7BF
S11344A00A00B33333642DFF527858FF5278581101
S11344B03DB7D5E93D75021408085500452E006244
S11344C0004C02C80DB0520002000600240002B4E1
S11344D0000128C91E6D324701EE021C027500B5A9
S11344E091D965691545015A324701EE021C0275DE
S11344F000B591D965691545015AEF5A0F6B1A6ACF
S11345000D05020D14131E6E0C7201FAEF5A0F6B97
S11345101A6A0D05020D14131E6E0C7201FA97B877
S11345201E2535AC1B40040413791DC90DBA01FACC
S113453097B81E2535AC1B40040413791DC90DBA68
S113454001FA866D094F0048003B00270000000077
S1134550000000000000094F0048003B0027000055
S11345600000000000000000094F0048003B002745
S113457000000000000000000000094F0048003B5C
S1134580002700000000000000000000126B0AB7C2
S113459011370968010413791D3B0B00007A126B73
S11345A00AB711370968010413791D3B0B00007A1F
S11345B02E6D324701EE021C027500B591D9656972
S11345C01545015A324701EE021C027500B591D916
S11345D065691545015AEF5A0F6B1A6A0D05020DEC
S11345E014131E6E0C7201FAEF5A0F6B1A6A0D0542
S11345F0020D14131E6E0C7201FA97B81E2535AC09
S11346001B40040413791DC90DBA01FA97B81E257D
S113461035AC1B40040413791DC90DBA01FA866D2B
S11346203C8801840388028C009A8AE85B5612084D
S1134630015A3C8801840388028C009A8AE85B56FC
S11346401208015AEF5A0F6B1A6A0D05020D141362
S11346501E6E0C7201FAEF5A0F6B1A6A0D05020DE9
S113466014131E6E0C7201FA97B81E2535AC1B404C
S1134670040413791DC90DBA01FA97B81E2535AC87
S11346801B40040413791DC90DBA01FA9C6D2E2E2A
S113469000270021001A006606C3051F057B04F0ED
S11346A02E2E00270021001A006606C3051F057B75
S11346B004F0D341003B0034002E006606C3051FFE
S11346C0057B04F0D341003B0034002E006606C392
S11346D0051F057B04F0A58200760069005C006676
S11346E006C3051F057B04F0A58200760069005C03
S11346F0006606C3051F057B04F0B4000280004277
S1134700AA000042E600003D6F9DB20F01000000C8
S113480075817F787F7600D8FC90384BAE83AF8279
S113481090301D1248696005E4F0A380F69048C703
S11348201248729048CB1248729048CF1248909028
S113483048D512489075D00090401CE0601A900052
S11348400E7480F090401C7441F0A374D1F0904039
S11348501A7441F0A374E2F090000F7480F07407AE
S113486090B4F8124B490248DBEF65827003EE65A1
S11348708322E493F8740193F9740293FE7403930E
S1134880F5828E83E869700122E493F6A30880F42C
S1134890E493FC740193FD740293FE740393FF7418
S11348A00493F8740593F582888312486970012291
S11348B0E493A3A883A9828C838D82F0A3AC83ADF7
S11348C0828883898280E361626E8174746E823827
S11348D04B6F756E82393E6E816E8180FE006487F7
S11348E0ED5100028F5C29190000000000A2F98339
S11348F06E7E05D3E7F43400F709DEF82233400472
S1134900C2098004D209B208227E05E7F60809DE4E
S1134910FA227E05E733F709DEFA22C37E05E713A0
S1134920F719DEFA227E05E7700309DEFA227A051A
S1134930E0F618A3DAFA227A04E0F618A3DAFA22E7
S11349407A05E493F2A308B8000205A0DAF422740D
S1134950007A05F608DAFC227A04E6F0A318DAFAFB
S1134960227834C37E05E636F608DEFA124981332E
S11349705002800CD378397E05740036F608DEF9CF
S1134980227834792F7C3E7E05C3E697C001A904C2
S1134990F7D00108090CDEF222782F79341249DAB3
S11349A0EF2419FF70088021C37934124912124987
S11349B08133400A7834793E124909D38001C3799E
S11349C039124912DFE212496122124999793DE70D
S11349D03350028003D38001C322740428F97F007A
S11349E0E7700719EF2408FF80F6330F50FC79387D
S11349F07E00E7700719EE2408FE80F6330E50FCA3
S1134A00EFC39EFFFD4017BF00028026740FC39FB3
S1134A1050028021792FC3124912DDF88014EFC3AC
S1134A2094E05002800CEDF404FDC3793412491271
S1134A30DDF8D38001C322783912494F7934124901
S1134A402560507A05C37934124912DAF99030207E
S1134A50783312492E783E12494F7A397B3E1249F7
S1134A60CA853934853A35853B36853C37853D38AA
S1134A707A09C37934124912DAF99030257833125D
S1134A80492E783912494F783E12494F7A397B3E84
S1134A901249CA228E838F82783712492EC208792E
S1134AA037E71248FD30090579341248F178387631
S1134AB0009048DD75A03078201249409048E27596
S1134AC0A030782512494090261EE0C0E0A3E0C043
S1134AD0E0124A37E53930E70C783A7A04E604F60E
S1134AE0700308DAF830080579391248F1783DD0B6
S1134AF082D083124958228E838F827838124937A4
S1134B00C2087938E71248FD30090579341248F1B2
S1134B10783476009048E775A030782012494090A8
S1134B2048EC75A030782512494090261EE0C0E07C
S1134B30A3E0C0E0124A3730080579391248F17809
S1134B403CD082D08312495822C07FF57F92D5A2EF
S1134B50E09294A2E192B0A2D5E473D0E0F57F9202
S1134B60D5A2E09294A2E192B0A2D522323232329E
S1134B70C0E0C0D0C083C082758D52758B63054878
S1134B80E548B41E2F7548000549E549B43C257530
S1134B904900903EF0E005E0F07019903EEFE0052A
S1134BA0E0F07010903EEEE005E0F07007903EED0E
S1134BB0E005E0F0D082D083D0D0D0E032C0E0C0B5
S1134BC0D0C0F0C082C08330D817C2D8C2DEE5E9B5
S1134BD0254BF5EBE5F9354AF5FBD2DEC2D975DB99
S1134BE04930D923C2D9A293B34006204909024CC3
S1134BF007304903024C079249D24875DB009032D2
S1134C0062E4A24992E0F030DA0CC2DAE5DC30E08A
S1134C1014D20F75DC0030DB0CC2DBE5DD30E005BF
S1134C20D21075DD0020DC03024CE0C2DCC2DEE5FC
S1134C30E92401F5EEE5F93400F5FED2DE301A166A
S1134C401554E554B4FF021553E55345546003026B
S1134C504C56D211C21A301B161556E556B4FF0233
S1134C601555E55545566003024C6FD212C21B30F0
S1134C701C161558E558B4FF021557E557455860FA
S1134C8003024C88D213C21C301D13155AE55AB4C2
S1134C90FF021559E559455A7004D214C21D301E3D
S1134CA013155CE55CB4FF02155BE55B455C7004C1
S1134CB0D215C21E301F13155EE55EB4FF02155DEA
S1134CC0E55D455E701AD216C21F3020131560E5EB
S1134CD060B4FF02155FE55F45607004D217C2201F
S1134CE0D083D082D0F0D0D0D0E032120042221251
S1134CF00045221200482212004B2212004E22C20A
S1134D00A812003622902408E550F0A3E551F0A340
S1134D107F0112537822C2B4200F0D20B3FAA2B53A
S1134D20D2B4200F0330B3FAD2B422C296200F0DAE
S1134D302095FAA297D296200F033095FAD29622A4
S1134D40C291200F0D2090FAA292D291200F03302D
S1134D5090FAD29122E545B40405124D408016B470
S1134D600505124D40800EB40305124D168006B49D
S1134D700203124D2B229292C290200F0D2091FA21
S1134D80D292D290200F033091FAD292D2902292F2
S1134D90B5C2B3200F0D20B4FAD2B5D2B3200F039D
S1134DA030B4FAD2B5D2B3229297C295200F0D2017
S1134DB096FAD297D295200F033096FAD297D295CD
S1134DC02292D5E545B40407A2D5124D76801CB4D1
S1134DD00507A2D5124D768012B40307A2D5124D51
S1134DE08F8008B40205A2D5124DA822305F0312A9
S1134DF0521FF5F07A08E5F013F5F05002B20D12E7
S1134E005285124DC1300F08305F0774541252FEA0
S1134E10DAE4227A08124D551251A7200F0B5002E2
S1134E20B20DE5F013F5F0DAEC305F0D200F05124A
S1134E305142800574541252FE227C00D20AAE8282
S1134E40AF83C20DE0D260124DEC200F73A3E0FBE0
S1134E50124DEC200F6AE5822B50020583F582E0A7
S1134E60124DEC200F5A1582E582B4FF021583A27D
S1134E700D125285124DC1200F46C20D124D55120E
S1134E8051A7200F3B920B300A04C20A920C200F48
S1134E902F124D551251A7200F26400C8E828F835E
S1134EA00CBC0502802C8094DBB5300C19300B1C33
S1134EB08F838E82A3E0258250020583A3D38019B9
S1134EC07F177E0080127F147E00800C7F237E007B
S1134ED080067F237E008000C322AE83AD827C05E2
S1134EE0C20DD260125285124E13200F58F0A31235
S1134EF04E13200F50F0FBF547E5822B500205833B
S1134F00F582124E13200F3DF01582E582B4FF02A4
S1134F101583124D55200F2D4002B20DD3124DC1F1
S1134F20200F22A20D124DC1200D088E838D82DC2C
S1134F30AF8004C20DDBCBE547258250020583F523
S1134F4082A3D380057F177E00C322D3200F1520B0
S1134F50B5FAC2B4200F0D20B3FAD2B4200F053035
S1134F60B3FA8001C3D2B422D3200F152097FAC21A
S1134F7096200F0D2095FAD296200F053095FA80D1
S1134F8001C3D29622D3200F152092FAC291200F8A
S1134F900D2090FAD291200F053090FA8001C3D2EF
S1134FA09122BF080040067F167E0080228F45C2F2
S1134FB00D124E13200F12FFD3902444E0FEA3E001
S1134FC0F5828E83EFF0D380157F177E00800090EA
S1134FD02402E545F0740690E9C7124B49C3228FB9
S1134FE045124D05E545B40405124F858018B405F6
S1134FF005124F858010B40305124F4B8008B4028C
S113500011124F688000200F03D3801D7F177E008C
S113501080067F167E008000902402E545F0740629
S113502090E9C7124B49C38000228F45BF08004056
S1135030067F167E008044124D0590333A124EDAF4
S1135040200F3490333A754600E0A3B4FF18E0FB18
S1135050A36013E0A3B42000400AB440005005C389
S11350609420F546DBEDE546600A124EDA200F0780
S1135070154680F2D380137F177E00902402E54505
S1135080F0740690E9C7124B49C3228F45C20EBF84
S1135090080040067F167E00804C124D05754601BF
S11350A090333AE0B4FF19A3E0FBA36013E0A3B488
S11350B02000400AB440005005C39420F546DBEDBF
S11350C0E546601C124E3A4013200F1AD20E90246B
S11350D002E545F0740690E9C7124B49154680E095
S11350E0200E11D38011902402E545F0740690E956
S11350F0C7124B49C38000223099FDC299F5992209
S1135100C0E075F06484600544301250F8E5F07531
S1135110F00A8444301250F8E5F044301250F8D0CC
S1135120F0E5F0B42000400FB47E00500A742C1255
S113513050F8E5F01250F8740D1250F8740A125039
S1135140F822C082C083C0E0C0F088F0C0F0F5F05F
S1135150903EFFE545B40206E020E01D803DB40426
S113516006E020E1148034B40306E020E20B802B37
S1135170B40528E020E3028022906FE1E545931214
S113518050F874491250F8743A1250F830600774A9
S11351904C1250F8C260E5F0125100D0E0F8D0F0A3
S11351A0D0E0D083D08222305F74C0D0C082C0836C
S11351B0C0E0C0F088F0C0F092D5903EFFE545B461
S11351C00206E020E01D8049B40406E020E11480DA
S11351D040B40306E020E20B8037B40534E020E35A
S11351E002802EE030E72A906FE1E545931250F8F3
S11351F074421250F874491250F8743A1250F8E498
S1135200A2D534301250F8740D1250F8740A1250AA
S1135210F8D0E0F8D0F0D0E0D083D082D0D022C053
S113522082C083C0E0C0F088F0C0F0F5F0903EFF8B
S1135230E545B40206E020E01D803DB40406E0200C
S1135240E1148034B40306E020E20B802BB405287B
S1135250E020E3028022906FE1E545931250F87458
S11352604F1250F8743A1250F8306007744C1250D0
S1135270F8C260E5F0125100D0F0A8F0D0F0D0E010
S1135280D083D08222305F75C0D0C082C083C0E09A
S1135290C0F088F0C0F092D5903EFFE545B4020618
S11352A0E020E01D8049B40406E020E1148040B40D
S11352B00306E020E20B8037B40534E020E30280EB
S11352C02EE030E72A906FE1E545931250F87442DE
S11352D01250F8744F1250F8743A1250F8E4A2D5F0
S11352E034301250F8740D1250F8740A1250F8D079
S11352F0F0A8F0D0F0D0E0D083D082D0D022C08209
S1135300C083C0F088F0C0F0C0E0903EFFE545B433
S11353100206E020E01D8053B40306E020E114807F
S11353204AB40406E020E20B8041B40540E020E3E7
S1135330028038906FE1E545931250F874201250C2
S1135340F8743A1250F874201250F874651250F838
S113535074721250F874721250F8D0E01250F8744B
S11353600D1250F8740A1250F88002D0E0D0F0A860
S1135370F0D0F0D083D08222EF7003025470B40ACC
S1135380004003025470902408E0FEA3E0FDBF0136
S11353901DC20FED4E700302546DC2DEE5E92DF51A
S11353A0ECE5F93EF5FCD2DE75DC4902546DBF0232
S11353B01CC210ED4E700302546DC2DEE5E92DF5FA
S11353C0EDE5F93EF5FDD2DE75DD49801BBF03181E
S11353D0C21AC211ED4E700302546DC2DE8E538D9B
S11353E054D21AD2DE02546DBF0414C21BC212ED91
S11353F04E700302546D8E558D56D21B02546DBFF0
S11354000513C21CC213ED4E700302546D8E578DEA
S113541058D21C8058BF0613C21DC214ED4E70032F
S113542002546D8E598D5AD21D8042BF0713C21E7D
S1135430C215ED4E700302546D8E5B8D5CD21E80DE
S11354402CBF0813C21FC216ED4E700302546D8E9A
S11354505D8D5ED21F8016BF0916C217ED4E700314
S113546002546DC2208E5F8D60D2208000D38001F3
S1135470C322EF70030254CEBF0107C20F75DC00D4
S1135480804DBF0207C21075DD00803FBF0306C216
S113549011C21A8036BF0406C212C21B802DBF057A
S11354A006C213C21C8024BF0606C214C21D801B80
S11354B0BF0706C215C21E8012BF0806C216C21F4D
S11354C08009BF0909C217C2208000D38001C3220A
S11354D0C0D0C0E0C083C082C0F0C000C001C00220
S11354E0C003C004C005C006C007900005E0F50A6B
S11354F0E50A782056F50A5404603B900002740AC9
S1135500F07420F07450F07440F07405F09033346B
S1135510E07008903335E07002D25BD007D006D03B
S113552005D004D003D002D001D000D0F0D082D076
S113553083D0E0D0D032E50A5440602D90000A7444
S11355400AF07420F07450F07440F07405F0D00741
S1135550D006D005D004D003D002D001D000D0F0C2
S1135560D082D083D0E0D0D032E50A54027009E56D
S11355700A542070030259F2E50A54026034750992
S113558000900003E0F508FF64197024D2597820D4
S1135590E6900005F0D007D006D005D004D003D0A3
S11355A002D001D000D0F0D082D083D0E0D0D0326D
S11355B0803275090190000BE0F508FF641970242E
S11355C0D2597820E6900005F0D007D006D005D057
S11355D004D003D002D001D000D0F0D082D083D048
S11355E0E0D0D032E509700320660EE509146003AB
S11355F00256E4206A030256E4E5086413600302D9
S11356005670E509703120652ED265E5097004C233
S1135610008002C2047820E6900005F0D007D0068E
S1135620D005D004D003D002D001D000D0F0D08275
S1135630D083D0E0D0D032E50914703120692ED265
S113564069E5097004C2008002C2047820E6900073
S113565005F0D007D006D005D004D003D002D00185
S1135660D000D0F0D082D083D0E0D0D0320256E443
S1135670E508641160030256E4E509703130652ED3
S1135680C265E5097004D2008002D2047820E69055
S11356900005F0D007D006D005D004D003D002D046
S11356A001D000D0F0D082D083D0E0D0D032E50950
S11356B014703130692EC269E5097004D200800289
S11356C0D2047820E6900005F0D007D006D005D0AB
S11356D004D003D002D001D000D0F0D082D083D047
S11356E0E0D0D032E5097007A201E433FF8005A2BF
S11356F005E433FFEF600CE50864136006E5086415
S11357001170227820E6900005F0D007D006D0056D
S1135710D004D003D002D001D000D0F0D082D08306
S1135720D0E0D0D032900001E0547060729000015B
S1135730E0F50BFF5410600E90304E7415F0903964
S113574017E090304FF0E50B5420600E90304E740B
S113575015F0903917E090304FF0E50B5440600E8F
S113576090304E7415F0903917E090304FF090005F
S113577002740AF07420F07440F07405F07820E6A6
S1135780900005F0D007D006D005D004D003D00295
S1135790D001D000D0F0D082D083D0E0D0D03290ED
S11357A00009E054706072900009E0F50BFF54109A
S11357B0600E90304E7415F0903918E090304FF030
S11357C0E50B5420600E90304E7415F0903918E0BB
S11357D090304FF0E50B5440600E90304E7415F04D
S11357E0903918E090304FF090000A740AF0742059
S11357F0F07440F07405F07820E6900005F0D007CE
S1135800D006D005D004D003D002D001D000D0F00F
S1135810D082D083D0E0D0D032903335E0640260BF
S1135820030258AE903315E0640260030258AEAF31
S11358306112623158440058500158790258940357
S1135840000058AEE508640470037561010258AEA7
S1135850E508642E7005756102801CE508C3943068
S11358604007E508C3943A400EE5086404700575E2
S1135870610180037561008035E508643670057543
S11358806103800EE5086404700575610180037589
S11358906100801AE50864047004D26C800EE50887
S11358A06404700575610180037561008000E50979
S11358B07006786AE604600BE5091470327870E6C5
S11358C004702C90304E7415F0E5092417F582E429
S11358D03439F583E090304FF0E5097006A264E4B2
S11358E0338009E509147004A268E4330259B0E571
S11358F00970237868E62447F582E43434F583E5B7
S113590008F0786A067868E604700678687600809D
S1135910037868068021786EE62447F582E43436FD
S1135920F583E508F0787006786EE6047006786E04
S113593076008003786E06306B030259B0903337DB
S1135940E065097017903315E0147010903ED9E0AB
S113595065087006903313E004F08054306C18909E
S11359603335E064027010903313E004F090331583
S11359707401F0C26C8039305A10903EDAE0650848
S11359807006903038E004F08026204207903334CB
S1135990E014700EE508640D7008903038E004F0EF
S11359A0800E903ED8E065087006903038E004F030
S11359B0E509701C786AE664EF7013306610900095
S11359C001E0540470089000037413F080F0801F09
S11359D0E50914701A7870E664EF7013306A109059
S11359E00009E05404700890000B7413F080F00276
S11359F05B00E50A54017009E50A54107003025A69
S1135A0082E50A540160057509008003750901E502
S1135A1009703120652C786DE66025786CE62447A2
S1135A20F582E43435F583E0900003F0786CE60405
S1135A307006786C76008003786C06786D168002A8
S1135A40C2008034E50914702F20692C7873E66055
S1135A50257872E62447F582E43437F583E0900034
S1135A600BF07872E6047006787276008003787220
S1135A70067873168002C2047820E6900005F002CE
S1135A805B00E50A5480603D900004E0F50BFF5490
S1135A9010600AE50B54017002D2468026E50B54CF
S1135AA020600AE50B54027002D2478016E50B54BD
S1135AB040600AE50B54047002D2458006E50B549D
S1135AC0806000803B900005E05404601290000266
S1135AD0740AF07420F07450F07440F07405F0907F
S1135AE00005E05440601290000A740AF07420F03B
S1135AF07450F07440F07405F07820E6900005F0DE
S1135B0000D007D006D005D004D003D002D001D0F5
S1135B1000D0F0D082D083D0E0D0D032EF8AF0A48D
S1135B20CE8BF0A42EFEEF8BF0A4FFE5F02EFE4FFB
S1135B3022EA335008E4C39BFBE49AFAD392F0EED2
S1135B4030E709B2F0C3E49FFFE49EFE125B7230BB
S1135B50F008C3E49FFFE49EFE4F228EF0125B31F7
S1135B6020F706E8FEE9FF4E22C3E499FFE498FE1D
S1135B704F22790078007C10C3EF33FFEE33FEE947
S1135B8033F9E833F8E99BE89A4005F8E99BF90F03
S1135B90DCE6EF4E22EFF5828BF0A4C0E0EBC5F01B
S1135BA0CEF583A42EFEE435F0CDFF8582F0EAA481
S1135BB02EFEED35F0FDE433CC8BF0A42CFCEA8F03
S1135BC0F0A42CFCE98583F0A42CFCE88582F0A4E5
S1135BD02CFC8583F0EAA42DFDEC35F0FCE98582EC
S1135BE0F0A42DFDEC35F0FC8FF0EBA42DFDEC358D
S1135BF0F0FCD0E0FF4D4E4C2275F02088828B8360
S1135C00E4FBCCC0E0E4C9CDC0E0E4CACEC0E0C34C
S1135C10EF33FFA881E633F618E633F618E633F6D9
S1135C20EB33FBEA33FAE933F9EC33FCEB9583EA23
S1135C309EE99DEC9582400CFCEB9583FBEA9EFA71
S1135C40E99DF90FD5F0C8D0E0FED0E0FDD0E0CC5E
S1135C50F8EF4E4D4C22125BF9E8FCE9FDEAFEEB4D
S1135C60FF80EFE833500EE4C39BFBE49AFAE49917
S1135C70F9E498F8D3EC30E708B3C0D0125C9F8005
S1135C8002C0D0125BF9D0F020F70122F5F0125CCB
S1135C909FE5F022ECC0E0125C63125C5980E7E4FB
S1135CA0C39FFFE49EFEE49DFDE49CFC22EFF4FF11
S1135CB0EEF4FEEDF4FDECF4FC4D4E4F22F5F0C392
S1135CC0EF9BF583EE9A4283ED994283EC20F00634
S1135CD06480C86480C89882F130F20545837001FD
S1135CE0D330F301B3E43322EF2BFFEE3AFEED3968
S1135CF0FDEC38FC4D4E4F22C3EF9BFFEE9AFEEDB8
S1135D0099FDEC98FC4D4E4F22EF5BFFEE5AFEEDF1
S1135D1059FDEC58FC4D4E4F22EF4BFFEE4AFEED81
S1135D2049FDEC48FC4D4E4F22EF6BFFEE6AFEED51
S1135D3069FDEC68FC4D4E4F220B800EECA2E7137C
S1135D40FCED13FDEE13FEEF13FFDBF0EC4D4E4FB5
S1135D50220B800DC3EC13FCED13FDEE13FEEF13C9
S1135D60FFDBF1EC4D4E4F220B800DC3EF33FFEE02
S1135D7033FEED33FDEC33FCDBF1EC4D4E4F22EC06
S1135D804D700122E8497003025EB9125FD9947F15
S1135D904006285009025EB3284003025EB9C0E001
S1135DA0C0F0EB4A704EB98009D0E0FAD0E0FB02B3
S1135DB05EA6EF4E7018BD8008EBFFEAFEE9FD8099
S1135DC0E8E4F8FCE98DF0A4FBE5F0025E6EE98FEF
S1135DD0F0A4FCA8F0E98EF0A428F8E435F0FBE97F
S1135DE08DF0A42BFBE435F0025E6EE9CDF9EAFEFA
S1135DF0EBFF80DAEF4E7005BD80F080BCE9C0E0B7
S1135E00EF8BF0A4FCA8F0EE8BF0A428F8E435F0B6
S1135E10F9EF8AF0A4284CFCE5F039F9E433F88B67
S1135E20F0EDA429F9E5F038F8EE8AF0A429F9E5B3
S1135E30F038F8E433FB8FF0D0E0FFA429C5F03844
S1135E40F8E43BFBEC6002D2F0ACF0EE8FF0A42857
S1135E50F8E5F03BFBE433F9ED8AF0A428F8E5F02B
S1135E603BFBE439F9EF8DF0A42BFBE5F039F5F0B9
S1135E70FDEBFEE8FFD0E0FAD0E0FB30F7070BEBD8
S1135E807006025EB3125EBF025E8BEC3350178F56
S1135E90F020F00260100FEF700C0EEE70080DEDA4
S1135EA070040BEB600DEA33EB13FCED2313FD4C94
S1135EB04E4F227C7F74FF8002E4FCFDFEFF22C370
S1135EC0EC33FCEF33FFEE33FEED33FD22C3ED1371
S1135ED0FDEE13FEEF13FFEC135002D2E0FC22C3DD
S1135EE0E49FFFE49EFEE49DFDE49CFC22EC4D70E7
S1135EF003025EB9E8497003025EB3125FD9E89405
S1135F007FCC40069C500A025EB9C39C4003025EEB
S1135F10B3F8EB4A700CE994807007E8FBAAF0022E
S1135F205EA6C0F07C00125FCA501D18E87005D050
S1135F30F0025EB9C3125EC3EC33FCEF2BFFEE3A02
S1135F40FEED39FDE43CFCD3E8C0E075F0087403D1
S1135F50C0E07800501CC3EF9BFFEE9AFEED99FD64
S1135F60EC9400FC500CEF2BFFEE3AFEED39FDE40F
S1135F703CFCE833F8EF33FFEE33FEED33FDEC3356
S1135F80FCD5F012D0F0E8C0E0E5F0146012C0E0F7
S1135F9075F0087800EC20E0BDEDD330E7D480B68E
S1135FA0125FCA4D4E4FF8D0E0F4FFD0E0F4FED0BB
S1135FB0E0F4FDD0E0FBD0E0FAE85003025EA66016
S1135FC003025E96EF5401025E94C3EF9BFFEE9AC8
S1135FD0FEED99FDEC9400FC22E9A2E7D2E7F9E892
S1135FE033F813F5F0EDA2E7D2E7FDEC33FCC5F08E
S1135FF013A2E730E601B313C5F0C322E86480F8C6
S1136000E8497003EC4D22EC4D700BE8FCE9FDEA25
S1136010FEEBFF740122C3EF9BEE9AED99E8C2E711
S1136020F5F0ECC2E795F0500E600CE8CCF8E9CD41
S1136030F9EACEFAEBCFFB125FD9C0E0C0F07C00E6
S1136040C398F8605C9418600C401BD0E023FAD02D
S1136050E0FB025EA689F0EA4B6003D2F0E4ACF008
S1136060F9FAFB0260A1E830E40D8AF0EB6003D298
S1136070F0E4ACF0FAC9FBE830E30D8BF0EC60021D
S1136080D2F0ACF0E4C9CAFBE854076014F8C3E9E1
S113609013F9EA13FAEB13FBEC135002D2E0FCD829
S11360A0EDD0E0C0E030E737C3E49CFCF5F0EF9BB3
S11360B0FF42F0EE9AFE42F0ED99FD42F0D0E0FA94
S11360C0D0E0FBE5F0700122EA23FAED30E70302A9
S11360D05E8BEB14FB7003025EB9125EBF80EDEFC2
S11360E02BFFEE3AFEED39FDD0E023FAD0E0FB4081
S11360F003025E8B125ECE0BEB7003025EB3025E94
S11361008BEDA2E7D2E7FDE4CC3392F0C3947F5049
S113611003025EB9F583941F40056011025EB3F477
S113612004F583EC54FEFC125ECDD583F6ECCFCEA1
S1136130CDCC30F003125EDFED025EAFEC30E7074A
S1136140D2F0125EDF8002C2F0EC4D4E4F7001229D
S1136150758396EC700EED20E71C1583125EBF303C
S1136160E7F88012EC0583C313FCED13FDEE13FE78
S1136170EF13FFEC70EFA2F0E58313FCED92E7FD63
S1136180440122E830E71CC38035F4D38031F5F0B4
S1136190C3EC30E7EEE830E7F130F10363F00CE8EC
S11361A0547FF8EC4D7002FEFFE8497002FAFBEFF1
S11361B09BF583EE9A4283ED994283EC547F988257
S11361C0F130F20545837001D330F301B3E4332297
S11361D0D083D082C3E493A3CF9FFFE493A3CE9E46
S11361E0FE93A3CD9D7045E493A3CC9C703F801196
S11361F0D083D082C3E493A3CF9FFFE493A3CE9E26
S1136200FE20E729C3E493A39FE493A39E20E7120F
S1136210A3A3EF2F500205832582F582E5833E2E4A
S1136220F583740193C0E0E493C0E022A3A3A380A8
S1136230F1D083D082E49370097401937004A3A312
S1136240800B7402936F6005A3A3A380E874019389
S1136250C0E0E493C0E0228A838B82B90005A8825F
S1136260E68010B90103E0800AB90204E4938003D4
S1136270A882E2A3AA83AB82FC8E838F82BD000531
S1136280A882E68010BD0103E0800ABD0204E49305
S11362908003A882E2A3AE83AF82C39C7006BC00D5
S11362A0B6FFFE22FFE49400FE4F228A838B82B95C
S11362B00005A882E68010B90103E0800AB902044F
S11362C0E4938003A882E2A3AA83AB828E838F82A5
S11362D0BD0005A882F68009BD0103F08003A882F1
S11362E0F2700122A3AE83AF8280C00C8CF0C0E0B8
S11362F0D0E07004D5F0012214C0E08A838B82B907
S11363000005A882E68010B90103E0800AB90204FE
S1136310E4938003A882E2A3AA83AB828E838F8254
S1136320BD0005A882F68009BD0103F08003A882A0
S1136330F2A3AE83AF8270B8BB00011A1B80B10C0C
S11363408CF0FCBC0004D5F001221C8A838B82B93A
S11363500005A882E68010B90103E0800AB90204AE
S1136360E4938003A882E2A3AA83AB828E838F8204
S1136370BD0005A882F68009BD0103F08003A88250
S1136380F2A3AE83AF8280BBEEC0E0EFC0E0B90001
S113639006EBF8E60B801FB9010C8A838B82E0A31D
S11363A0AA83AB828010B902088A838B82E493802B
S11363B0EEEBF8E280DEBD0012F8EFC8F6080FDC61
S11363C0CDD5F0CAD0E0FFD0E0FE22BD010C8E8313
S11363D08F82F0A3AE83AF8280E5F8EFC8F280DD50
S11363E02BFB50010AE9C0E0EAC0E0EBC0E0740A0C
S11363F0C0E07464C0E0C082C083EFC0E0EEC0E0DF
S1136400126536D0E0FAD0E0FB22D0E0FBD0E0FA0F
S1136410D0E0F902647A2BFB50010AE9C0E0EAC03B
S1136420E0EBC0E0744CC0E07464C0E0C082C083A0
S1136430EFC0E0EEC0E0EDC0E0ECC0E01265F1D0EA
S1136440E0F8D0E0F9D0E0FAD0E0FB22D0E0FBD0D5
S1136450E0FAD0E0F90264D32BFB50010AEFFFB954
S11364600005F8EBC8F622B901068A838B82F02274
S1136470F8EBC8F2222BFB50010AB90009EBF8EE45
S1136480F608EFF64E22B9010B8A838B82EEF0A355
S1136490EFF04E22EBF8EEF208EFF24E222BFB5017
S11364A0010AB9000CEBF8EDF608EEF608EFF64E2B
S11364B022B9010E8A838B82EDF0EEA3F0EFA3F0F4
S11364C04E22EBF8EDF2EE08F2EF08F24E222BFB2F
S11364D050010AB90011EBF8ECF608EDF608EEF6F7
S11364E008EFF64C4D4E22B901118A838B82ECF0F1
S11364F0EDA3F0EEA3F0EFA3F080E8EBF8ECF2EDFF
S113650008F2EE08F2EF08F280D92BFB50010AB929
S11365100005EBF8E6FF22B901078A838B82E0FFCE
S113652022B902088A838B82E493FF22EBF8E2FF0C
S1136530222BFB50010AB90009EBF8E6FE08E6FF3E
S11365404E22B9010A8A838B82E0FEA3E080F0B96F
S1136550020C8A838B82E493FE74019380E1EBF84E
S1136560E2FE08E280D92BFB50010AB9000BEBF8DC
S1136570E6F908E6FA08E6FB22B9010D8A838B8264
S1136580E0F9A3E0FAA3E0FB22B902108A838B822C
S1136590E493F9740193FA740293FB22EBF8E2F9A1
S11365A008E2FA08E2FB222BFB50010AB9000CEBCB
S11365B0F8E6FD08E6FE08E6FF4E22B9010E8A83DE
S11365C08B82E0FDA3E0FEA3E0FF4E22B902118A14
S11365D0838B82E493FD740193FE740293FF4E2235
S11365E0EBF8E2FD08E2FE08E2FF4E222BFB50012D
S11365F00AB90011EBF8E6FC08E6FD08E6FE08E639
S1136600FF4E4D4C22B901108A838B82E0FCA3E03B
S1136610FDA3E0FEA3E080E8B902148A838B82E440
S113662093FC740193FD740293FE74039380D1EB85
S1136630F8E2FC08E2FD08E2FE08E280C3C0E08F55
S1136640F0A42BFBE5F03AFFD0F0EEA42FFA22924F
S1136650F72BFB50010AA2F77D017C0040031C7D4F
S1136660FF126536EF2DFFEE3CFE12647A22CFC096
S1136670E0EEC0E0EDC0E0E582CFAE8312669E801E
S113668010EFC0E0EEC0E0EDC0E0AF82AE83126672
S1136690A3D0E0CDF9D0E0CEFAD0E0CFFB222BFBA3
S11366A050010A8582F0C0831265ACD083C0E0EF4C
S11366B025F08FF0FFEE3583CEC0E01264A2AFF078
S11366C0D0E0FED0E02292F72BFB50010AA2F7E4BF
S11366D075F00140041475F0FFC0E0C0E0C0E012A2
S11366E065F1E5F02FFFD0E03EFED0E03DFDD0E0C7
S11366F03CFC1264D322CFC0E0EEC0E0EDC0E0E584
S113670082CFAE831267268010EFC0E0EEC0E0EDCA
S1136710C0E0AF82AE8312672BD0E0CDF9D0E0CEDB
S1136720FAD0E0CFFB222BFB50010A8582F0AC8328
S11367301265ACEF25F0FFEE3CFE1264A222256444
S11367400025750A000000256400303132333435E9
S113675036373839002D2E30313233343536373828
S11367603900420030313233343536373839002578
S11367706400562C31303D3100562C31333D2564B4
S11367800025643B25643B25643B25643B2564006C
S1136790562C3230313D257300562C3230323D2593
S11367A073004C563D30004F562A00442C393D00AE
S11367B053004200200000000400100061000A00A1
S11367C0C000D800FF00C100D900E100080041006A
S11367D01A0046002564002D303132333435363703
S11367E038392E0030313233343536373839004EAB
S11367F00072736572723A2025752028737461746F
S11368007573290A0025636F75743A203020287344
S11368107461747573290A00206F75743A203020EE
S113682028737461747573290A00302E2564002559
S1136830750025636F75743A20257320287374617D
S1136840747573290A00206F75743A202573202803
S1136850737461747573290A0025752E25750025D6
S11368606400256C692E2530356C6900256C692E11
S11368702530366C690025312E36660025750000FA
S113688033323D00000A373D00000A383D00000A5B
S1136890393D000025643D00472C25643D002575E5
S11368A0004352433D25753B25753B25753B2575B6
S11368B0004F562A004C563D3000522343524300A9
S11368C03136383D003136393D00257500256900E3
S11368D0256C690025756C690025312E34660048E5
S11368E000004F003234300A003031323334353650
S11368F0373839003031323334353637383941425C
S1136900434445460025753D0025632C25753D000F
S11369103031323334353637383900412C32323D58
S113692025750A003234302E382563256300303152
S113693032333435363738392E233A4D4600510038
S11369404825303275005625303275003235303DD9
S1136950004A004900303132333435363738390093
S1136960490052003031323334353637383900007B
S113697000000000303132333435363738390043C3
S11369803100534641453D31005346413D310032CB
S113699035303D32003136353D003136363D00501C
S11369A0562C373D2325312E34663A3000323530AB
S11369B03D300050562C373D2566312E3423256654
S11369C000510030003100320033005100433100E7
S11369D000000000003136353D003136363D0050B0
S11369E0562C373D25312E34663A30302325312E4E
S11369F034663A3030004D4200393D004332005095
S1136A00562C373D4D25312E34663A30302325310E
S1136A102E34663A3030003139303D25660A31393A
S1136A20313D25660025632C3139303D25660A2524
S1136A30632C3139313D25660025750025752E25D9
S1136A4075003139323D25660A3139333D256600FA
S1136A5025632C3139323D25660A25632C313933BF
S1136A603D256600510043310052464145005246DF
S1136A7041004D4200433200464145004641002555
S1136A80632C36353D25730A0025632C36363D25A7
S1136A90730A00432575205325752044257500315C
S1136AA0003200330030003100320033003400255E
S1136AB0750A0000783030003235303D50003136F0
S1136AC0383D000A000050562C373D25312E3466DF
S1136AD0003130373D003130383D0050562C373DC1
S1136AE0257300412C32323D25750A0025750A00B4
S1136AF0303132333435363738390041545A310065
S1136B00257300562C25643D00442C383D25750022
S1136B104F004400562C31303D31003800562C31A2
S1136B20323D3200562C31313D257500562C313220
S1136B303D3100302E360A00415453333D31330089
S1136B40415453333D2575004154533130303F0097
S1136B504154533130313F004154242443256400CF
S1136B6041545325643D2564002E36004154533569
S1136B70313D25640041545335323D256400415470
S1136B804B313000415453333D34002B2B2B004107
S1136B905441003234302E38003234300A0032345A
S1136BA0302E3825630041544930004154493200A5
S1136BB041545336303F0041545325753F002563FB
S1136BC02C25643D25730025632C25643D00257325
S1136BD00041545325753D2573002564003031323E
S1136BE0333435363738390025636F75743A2045A8
S1136BF04F540A003F6F75743A20454F540A0025DC
S1136C00632C25643D0025753D0025632C25753DC9
S1136C10003235303D257500000000000025640079
S1136C202575005100FA01510030313233343536C4
S1136C303738390025750025750030313233343545
S1136C403637383900256C75003631362D0036302C
S1136C50310036303200303132333435363738395A
S1136C600025326C752E25326C750025342E316664
S1136C700025342E32660025750025753E0042330A
S1136C80002563696E3A2025730A0020696E3A2054
S1136C9025730A0025636F75743A2025730A00284A
S1136CA0256429206F75743A2025730A0025750020
S1136CB0363031003630320036303300252E35661A
S1136CC00025632C25643D003031323334353637AA
S1136CD0383941424344454600286E756C6C207037
S1136CE06F696E746572290030313233343536374A
S1136CF03839616263646566003F3F3F00D06D26AA
S1136D000E9F822616A56527B39E6E2400A2B42783
S1136D10C6A1D127CCB79A2403B8B427D3B9892400
S1136D201096F927D7DC8D27DBDC2727DFF36129D1
S1136D3022F826292CFB7C2932FA8E2938FB0529D6
S1136D403EE95B2943E8B42947C28C296598F024BD
S1136D50199A87242AFB1F2970E307242EDFAB2B03
S1136D60F8DEF2242FECCD2C09E5A8243BF2AB2469
S1136D703FDBEC244FD9ED2C17D56E2C34D2D9241B
S1136D8052D659245DD2C42462D1F12468D10F248F
S1136D9069CAB1246CC29C2C37C36F2470C3FE2C07
S1136DA03AC5EA2C55C7852C57C8782C6DC9A92C2F
S1136DB06FCA032C6FCA4D2470BAB62C8499C92C9F
S1136DC08784CF2478859E247A86592C908A4D24F2
S1136DD07A8B2A2CC883872CCB801C2CD098FC2C33
S1136DE0D39948247A8B31247A8AC2247D80DA2C80
S1136DF0EAAC952D0EE7D7247DC6162D13C1C82401
S1136E0088C2442D27C398248AC4092D2AC58824FE
S1136E10A6BEF52D3BFE992D40CD582D48CEB42D60
S1136E204CB0A12D54B1B92D5CAF9F2D62B0572D3C
S1136E3066B26B2D6AB6282D70B2AF2D74F7232D70
S1136E40788E442D81D2A62DA5D25F2DA9CC8E2576
S1136E500E89A72DB187DF2DB988C32DC1863D2D9D
S1136E60C987082DD1EF692DD7BF6E2512BCF32D2C
S1136E70DBBF172516BDF42DE1F81B251DF699255A
S1136E8021000013130001027CFB01131300010213
S1136E907D0A021313FFFF027D1303131300010283
S1136EA07D1C0413130001027D25064C4BFFFF02D9
S1136EB07D820713130001027D34081313000102BD
S1136EC07D3D091313FFFF027D460C2626FFFF02BA
S1136ED07D550DBEBC0001027D820E4C4B000102AB
S1136EE07DA90F4C4B0001027DB810131300010261
S1136EF07DC11113130001027DCA144C4B00010221
S1136F007DE51513130001027DEE50562C3200006E
S1136F10000000000000000000000050562C313733
S1136F203D310000000000000000000050562C31EC
S1136F30373D330000000000000000000031302E17
S1136F403600000000000000000000000000000700
S1136F5000FFFFFFFFFFFF01FF027E49027E4C029C
S1136F607E53027E56027E5B027E60027E65027E56
S1136F7068000000013632382D30372E30360000DC
S1136F800000000000003030303531372031343A11
S1136F90323600000000006667686ADD6B6C6D6E57
S1136FA06F798A91929394A7B7D2D3D4D6D7D8D9EC
S1136FB0DADBDC70007100D1007001710177017AB5
S1136FC0017B017F0180019101920196019801D119
S1136FD001D401D5010500000000000500000000F7
S1136FE000435641445354475800FF080F070C0D03
S1136FF00006000291FF0293FF037005037105036D
S1137000961003980803D40503D50504662D046976
S11370106D046A6D046B6D046C6D046D6D0D00631D
S1137020FFFF01302D140008FFFF013E6915002BFE
S1137030FFFF013E5D20006DFFFF066E31210063FE
S1137040FFFF01343A28002C0001013D5429002C93
S11370500001013D652A002C0001013D762B002C26
S11370600001013D872C002C0001013D982D002CCE
S11370700001013DA92E002C0001013DBA2F002C76
S11370800001013DCB30002C0001013DDC31002C1E
S1137090FFFF013DED3200280001013DFE330028D1
S11370A00001013E02340023FFFF013E0635002C9F
S11370B0FFFF013E0736002CFFFF013E1837002C6E
S11370C00001013E293C0028FFFF013E3A3D002813
S11370D0FFFF013E3E3E0028FFFF013E423F0028E5
S11370E0FFFF013E464100080001013E7E420008C8
S11370F00001013E824300080001013E864400086D
S11371000001013E8A450008FFFF013E9246003817
S1137110FFFF0146FF470038FFFF014703480063B4
S1137120FFFF013EAF490038FFFF0147074F00232F
S1137130FFFF013EDA51000DFFFF066E4D53000CB8
S1137140FFFF0141AC630033FFFF0141BD64003424
S1137150FFFF0141BE65003CFFFF0141C066000D19
S1137160FFFF076D1567000DFFFF076D196B000D1D
S1137170FFFF076E196C000DFFFF076E1D6D003CCD
S1137180FFFF0141D16E004CFFFF026F866F003C90
S1137190FFFF0141E2700043FFFF01417871004CA1
S11371A0FFFF026F75720024FFFF013E4A73000463
S11371B0FFFF013E4C740004FFFF013E4E76000DBC
S11371C0FFFF076E3D77000DFFFF076CFD78000D94
S11371D0FFFF076E6179000DFFFF076E557A000D02
S11371E0FFFF076E5D7B000DFFFF076E517C0033D0
S11371F0FFFF01470B7D000DFFFF076E5982003C26
S1137200FFFF0141F383003CFFFF01420484003C83
S1137210FFFF01411285003CFFFF01421586003C3F
S1137220FFFF01422687003CFFFF01423788003CF4
S1137230FFFF01424889003CFFFF0142598C000DC9
S1137240FFFF076E658F000DFFFF066E4990000D6E
S1137250FFFF066E4594003DFFFF066E3595000D59
S1137260FFFF056D3596000DFFFF076D2D97003369
S1137270FFFF01410098002DFFFF076D499A000DA3
S1137280FFFF076D1DA0000DFFFF076E75A1002D08
S1137290FFFF076E6DA2000DFFFF076E71A3000DC7
S11372A0FFFF076E69A4003CFFFF013C88A5006452
S11372B0FFFF013C99BB0008FFFF013E65BD002DA7
S11372C0FFFF066E39BE002BFFFF013C79BF002B88
S11372D0FFFF013C7DC00028FFFF013C61C1002885
S11372E0FFFF013C65C2002BFFFF013C54C3002893
S11372F0FFFF013C59C40028FFFF013C5DC8000D9D
S1137300FFFF076D51C9006DFFFF076D29CA006DAE
S1137310FFFF076D25D20033FFFF014101D3003485
S1137320FFFF014102D40033FFFF014104D50034C3
S1137330FFFF014105D60033FFFF014107D7003DA0
S1137340FFFF076D21E90024FFFF013C9BF0000DC6
S1137350FFFF066D45FF803DFFFF076E4107004BB1
S1137360000001326308004B000001326709004944
S1137370000001326B0D0043000001302D15000B9D
S11373800000013E5D1E000D0000056D3120000D62
S11373900000066D4137004C00000141E24F00033C
S11373A00000013EDA5A000C0000013CAA5B000C0C
S11373B00000013CBB5C000C0000013CCC5D000CF7
S11373C00000013CDD5E000C0000013CEE5F000C9F
S11373D00000013CFF60000C0000013D1061000C46
S11373E00000013D2162000C0000013D3263000CED
S11373F00000013D4366000D0000066D0D67000DA1
S11374000000066D057B000D0000076D1D7F000D5B
S11374100000076E758E000D0000076D1996000CB4
S11374200000066E4D98000D0000076E199D004C7B
S113743000000141D1B2004C0000013EB3B3004C46
S11374400000014179B4004C000001418AB5004CB0
S1137450000001419BB6004C0000014166C9004C8C
S11374600000026F75EE804300000141780800437C
S1137470FFFF013262090019FFFF0000001E000D2A
S1137480FFFF056D3164001CFFFF00000066001360
S1137490FFFF000000670013FFFF000000680013F7
S11374A0FFFF000000690013FFFF0000006A0013E3
S11374B0FFFF0000006B0013FFFF0000006C0013CF
S11374C0FFFF0000006D0013FFFF0000006E0013BB
S11374D0FFFF0000006F0013FFFF00000070003189
S11374E0FFFF014129710031FFFF014123720013A5
S11374F0FFFF000000730013FFFF0000007400543E
S1137500FFFF000000750013FFFF00000076005924
S1137510FFFF000000770039FFFF01412F7800537F
S1137520FFFF000000790053FFFF0000007A0033E2
S1137530FFFF0141337B0033FFFF0141347C002313
S1137540FFFF01303C7D0054FFFF0000007E00136C
S1137550FFFF0000007F0033FFFF0141358000334F
S1137560FFFF014136810053FFFF0000008200133A
S1137570FFFF000000890013FFFF0000008A0014D1
S1137580FFFF0000008C0013FFFF0000008D0013BC
S1137590FFFF000000910033FFFF0000529200340F
S11375A0FFFF014137960031FFFF01413A98003156
S11375B0FFFF01414DB6001CFFFF000000A0003D8D
S11375C0FFFF056D39A1003DFFFF056D3DCA0019A0
S11375D0FFFF000000CB0019FFFF000000CC0019E2
S11375E0FFFF000000CD0019FFFF000000CE0019CE
S11375F0FFFF000000CF0019FFFF000000D1003999
S1137600FFFF014156D40031FFFF01415AD500313B
S1137610FFFF014160FA001CFFFF000000FD801322
S1137620FFFF00000016000DFFFF066D0164001C43
S1137630FFFF00000066000BFFFF013C5467003BA6
S1137640FFFF01426A68003AFFFF01426E6A003A96
S1137650FFFF0142726B002AFFFF013E506C002ABB
S1137660FFFF013E546D003AFFFF0142766E002396
S1137670FFFF013E586F002BFFFF013E59710013BD
S1137680FFFF000000720013FFFF000000730016EC
S1137690FFFF000000740016FFFF000000750016D5
S11376A0FFFF000000760016FFFF000000770016C1
S11376B0FFFF000000780015FFFF00000079003A8A
S11376C0FFFF01427A7A0015FFFF0000007B0015DE
S11376D0FFFF0000008A003AFFFF01427E8B001A80
S11376E0FFFF0000008C001AFFFF00000091003132
S11376F0FFFF014282920033FFFF01438293003176
S1137700FFFF014383940033FFFF0144839D000D79
S1137710FFFF066D11A5001BFFFF000000A6001B64
S1137720FFFF000000A70033FFFF014484A8001BF3
S1137730FFFF000000A9001BFFFF000000B3001CB6
S1137740FFFF000000B7002BFFFF013C69B80015E4
S1137750FFFF000000BA0013FFFF000000D2002B5F
S1137760FFFF013C71D3002BFFFF013C75D4002BBC
S1137770FFFF013C6DD50014FFFF000000D6003B65
S1137780FFFF014485D7003BFFFF014489D8003A3D
S1137790FFFF01448DD9003AFFFF014491DA003A1A
S11377A0FFFF014495DB003AFFFF014499DC003AF6
S11377B0FFFF01449DDD003AFFFF0144A1FA001CD4
S11377C0FFFF000000FD8013FFFF000000480019C8
S11377D0FFFF000000560019FFFF00000064001CBA
S11377E0FFFF000000650033FFFF0144A566003180
S11377F0FFFF0144A6670033FFFF0144D46800196A
S1137800FFFF000000690031FFFF0144D56A003129
S1137810FFFF0145436B0031FFFF0145B16C0031AF
S1137820FFFF01461F6D0031FFFF01468D6E0019F9
S1137830FFFF0000006F0019FFFF00000070000947
S1137840FFFF013EDC710003FFFF013E6D72001378
S1137850FFFF000000730039FFFF013E6E74003922
S1137860FFFF013E72760019FFFF00000078002D33
S1137870FFFF076D4D790019FFFF0000007A001922
S1137880FFFF0000007B0019FFFF0000007C0019CF
S1137890FFFF0000007D0019FFFF0000007E0013C1
S11378A0FFFF0000007F0039FFFF0146FBB4001C0E
S11378B0FFFF000000FA001CFFFF000000FD801322
S11378C0FFFF000000AD0011FFFF000000AE00113B
S11378D0FFFF000000B5001CFFFF000000B6001C05
S11378E0FFFF000000FB001CFFFF000000FE8013F0
S11378F0FFFF000000000013FFFF00000001001361
S1137900FFFF000000020013FFFF0000000300134C
S1137910FFFF000000040013FFFF00000005001338
S1137920FFFF0000000C0013FFFF0000000E001317
S1137930FFFF000000110013FFFF0000001E0013F2
S1137940FFFF000000200013FFFF000000210013D0
S1137950FFFF000000220013FFFF000000230013BC
S1137960FFFF000000240013FFFF000000250013A8
S1137970FFFF000000280013FFFF00000029001390
S1137980FFFF0000002A0013FFFF0000002B00137C
S1137990FFFF0000002C0013FFFF0000002D001368
S11379A0FFFF0000002F0013FFFF00000030001253
S11379B0FFFF000000320013FFFF00000033000D42
S11379C0FFFF056E2134000DFFFF056E2535001302
S11379D0FFFF000000360013FFFF00000037001314
S11379E0FFFF000000380013FFFF00000039001300
S11379F0FFFF0000003A0013FFFF0000003C0013EB
S1137A00FFFF0000003D0013FFFF0000003E0013D5
S1137A10FFFF0000003F0013FFFF000000400013C1
S1137A20FFFF00000041004CFFFF013EB342004C49
S1137A30FFFF013EC443000DFFFF056E2944000D06
S1137A40FFFF056E2D640013FFFF000000650013A7
S1137A50FFFF000000680013FFFF0000006900132F
S1137A60FFFF0000006A0013FFFF0000006C00131A
S1137A70FFFF0000006D0013FFFF000000760013FD
S1137A80FFFF000000770013FFFF000000780013E1
S1137A90FFFF000000790013FFFF0000007A0013CD
S1137AA0FFFF0000007B0013FFFF0000007C0013B9
S1137AB0FFFF0000007D0013FFFF0000007E0013A5
S1137AC0FFFF0000007F0013FFFF00000080001391
S1137AD0FFFF000000810013FFFF0000008200137D
S1137AE0FFFF000000830013FFFF00000084001369
S1137AF0FFFF000000850013FFFF00000086001355
S1137B00FFFF000000870013FFFF00000088001340
S1137B10FFFF000000890013FFFF0000008A00132C
S1137B20FFFF0000008B0013FFFF0000008C001318
S1137B30FFFF0000008D0013FFFF0000008E001304
S1137B40FFFF0000008F0013FFFF000000900013F0
S1137B50FFFF000000910013FFFF000000920013DC
S1137B60FFFF000000930013FFFF000000940013C8
S1137B70FFFF000000950013FFFF000000960013B4
S1137B80FFFF000000970013FFFF000000980013A0
S1137B90FFFF000000990013FFFF0000009A00138C
S1137BA0FFFF0000009B0013FFFF000000A4001C67
S1137BB0FFFF000000AB001CFFFF000000B2001C30
S1137BC0FFFF000000B9001CFFFF000000C0001C04
S1137BD0FFFF000000C7001CFFFF000000CE001CD8
S1137BE0FFFF000000D50013FFFF000000D60013C4
S1137BF0FFFF000000FA800CFFFF000000000000FF
S1137C0002701D02762502746D0277CD0278C502DA
S1137C10735D0278F5012804012901012A01012B71
S1137C2002013202013704012C01012D01012E0150
S1137C30012F01013001013301FF000002668003BE
S1137C400880031E80010D80011580011480013C11
S1137C5080013D80013E08013F080163800164808A
S1137C60016E80016F800171800172800173800157
S1137C70748001BB80012804012901012A01012B20
S1137C8002013101013202013504013604013704D5
S1137C90012C01012D01012E01012F0101300101EF
S1137CA03301013480014180014280014380014459
S1137CB080074480FF0000012804012901012A01F2
S1137CC0012B0201310101320201350401360401A4
S1137CD03704013480012C01012D01012E01012FF3
S1137CE001013001013301FF0000310000000000F8
S1137CF00000000000000000000000076D550000B7
S1137D0000000000066D5D000000066D61027D0448
S1137D10066D59076D65000000000000076D6900DD
S1137D200000000000076D6D000000000000066DFB
S1137D3075000000066D79027D2E066D71076D7D5C
S1137D40000000000000076D810000000000000733
S1137D506D89000000076D8D027D4F076D85056DEF
S1137D6095056D99056D9D056DA1000001056DA535
S1137D70056DA9056DAD000002056DB1056DB50079
S1137D800000056DB9027D5E056D91056DD5056D2B
S1137D90C1056DC5056DC9056DCD056DD100000228
S1137DA0056DDD056DE1000000056DD9027D8B05D3
S1137DB06DBD066DE9000000066DED027DB2066D35
S1137DC0E5076DF1000000000000076DF5000000FC
S1137DD0000000066DFD066E01066E05066E0906BE
S1137DE06E0D000000066E11027DD3066DF9056E5E
S1137DF015000000000000656667696A6B6C6D73AE
S1137E00747F4C4F50525457004144475354565872
S1137E10000000FF02FF0400000000FF02FF040056
S1137E2000FFFFFF05030400000000FF02FF040041
S1137E30000000FF02FF04000006FF0102FF04002F
S1137E4000FFFFFF02070400003D90002C91803DDD
S1137E509381002C9000802C9381002C903D920003
S1137E60802C9081003D930000010100010001007D
S1137E7000010100010001000000000001010100F7
S1137E8000010100010001000001010001000100E6
S1137E9000010001010001000000000001010100D7
S1137EA000FFFFFFFFFFFFFFFFFFFFFFFF000000DA
S1137EB000FFFFFFFFFFFFFFFFFFFFFFFF000000CA
S1137EC000FFFFFFFFFFFF000000000000000000B4
S1137ED000FFFFFFFFFFFFFFFFFFFFFFFF000000AA
S1137EE000FFFFFFFFFFFFFFFFFFFFFFFF0000009A
S1137EF000FFFFFFFF0001FFFFFFFFFFFF00000087
S1137F0000FFFFFFFFFFFFFFFFFFFFFFFF00000079
S1137F1000001F1C1F1E1F1E1F1F1E1F1E1F001FD1
S1137F201D1F1E1F1E1F1F1E1F1E1F0128020132A0
S1137F300302A50702A60803090901330B01301542
S1137F40012925012A26012B2701372B012C3E016B
S1137F502D25012E26012F2700202020202020203F
S1137F6020202828282828202020202020202020E5
S1137F7020202020202020202088101010101010F5
S1137F801010101010101010100404040404040441
S1137F9004040410101010101010414141414141DB
S1137FA001010101010101010101010101010101BD
S1137FB001010101101010101010424242424242CD
S1137FC0020202020202020202020202020202028D
S1137FD00202020210101010200000000000000035
S214018000902472EFF0D256A3E0FF7E0074069091A2
S2140180105A124B49902472E0FF024B5B902CD0120F
S21401802064B8C256E4903E4DFEE054024E6018E439
S214018030FEE054084E6010E4FEE054044E6008E48E
S214018040FEE054014E70259024027401F07FF47E08
S21401805000740690E9C7124B4990247374F4F07FBC
S2140180607F7405908000124B49024B5B902CD1E047
S214018070FFA3E04F604479027A697BC3902CD0124B
S21401808065C2126257605879027A697BC5902CD016
S2140180901265C2126257604779027A697BC7902CD3
S2140180A0D01265C2126257603679027A697BC9902E
S2140180B02CD01265C212625760259024027401F01A
S2140180C07F237E00740690E9C7124B49902473748F
S2140180D023F07F7F7405908000124B49024B5B9022
S2140180E0301FE09032D7F0902CD012658012650FC9
S2140180F0126231810330811031814332814B33006A
S2140181000081719032B1744DF0903C58E4F080617A
S214018110903C58E070259024027401F07F0C7E009C
S214018120740690E9C7124B49902473740CF07F7F54
S2140181307405908000124B49024B5B9032B1744338
S214018140F0802E9032B17454F080269032B1745281
S214018150F0E4FFFEFDFC903C591264EEE4FFFEFDE8
S214018160FC903C5D1264EE903C58E4F07F01024BBB
S2140181705B740690A3FA124B49902CCFEFF0600D7A
S214018180E06402702D9032B1E064436025902402D1
S2140181907401F07F027E00740690E9C7124B499085
S2140181A024737402F07F7F7405908000124B49029D
S2140181B04B5B7D027E697FCB90244A1264B87F04B4
S2140181C0740790E351124B49401390247374F4F0F2
S2140181D07F7F7405908000124B49024B5B7D027EC7
S2140181E0697FCD90244A1264B87F05740790E351E5
S2140181F0124B49401390247374F4F07F7F740590FA
S2140182008000124B49024B5BC25DA25E9255C25E74
S214018210903C81E070030282A890249574D2F07F8E
S21401822002740790D8A0124B49902434EFF09024A2
S2140182303374D2F07D017E3C7F799024351264B888
S2140182407F02740790FBA9124B4940139024737464
S214018250F4F07F7F7405908000124B49024B5B90CF
S214018260249574D3F07F02740790D8A0124B4990DE
S2140182702434EFF090243374D3F07D017E3C7F7D6F
S2140182809024351264B87F02740790FBA9124B49FB
S214018290401390247374F4F07F7F7405908000126D
S2140182A04B49024B5B02833490249574D2F07F02D3
S2140182B0740790D8A0124B49902434EFF0902433E1
S2140182C074D2F07D027E697FD09024351264B87F27
S2140182D002740790FBA9124B49401390247374F45F
S2140182E0F07F7F7405908000124B49024B5B90240F
S2140182F09574D3F07F02740790D8A0124B4990244E
S21401830034EFF090243374D3F07D027E697FD090F1
S21401831024351264B87F02740790FBA9124B4940BA
S2140183201390247374F4F07F7F7405908000124BD1
S21401833049024B5B7F01740690A1B0124B49401372
S21401834090247374F4F07F7F7405908000124B497B
S214018350024B5B90301EE004F090303BE004F0905E
S214018360343BE004F0903446E004F0740590F811D4
S214018370124B499254740590F809124B499032D623
S214018380EFF07F00024B5B903261E0640260030213
S21401839084AA7D027E697FD59024851264B87D010A
S2140183A07E317F60740790F03F124B49902CC812C3
S2140183B064B870030284AA90261DE4F0A3743DF00D
S2140183C0902CC81265C2740790FAD1124B497B01F2
S2140183D07A00740112663D8A068B07740790B9F11C
S2140183E0124B499032C61264EE7D027E697FDA90A6
S2140183F024851264B87D017E317F60740790F03F5A
S214018400124B49902CC81264B870030284AA9026B5
S2140184101DE4F0A3743DF0902CC81265C274079059
S214018420FAD1124B497B017A00740112663D8A0625
S2140184308B07740790B9F1124B499032CA1264EE59
S2140184407F00740690A1B0124B49401390247374B8
S214018450F4F07F7F7405908000124B49024B5B90CD
S21401846032B1E06443703C7D027E697FDF9025FD7A
S2140184701264B8903C5912660C9026001264EE9075
S2140184803C5D12660C9026041264EE7D017E307F00
S21401849060740790F6B0124B4990326074FEF0D2C9
S2140184A0438002D2587F03024B5B903261E0640244
S2140184B06013E06403600EE064046009E064056034
S2140184C004E00470057F02024B5B7F82024B5B7FF8
S2140184D001740690EF61124B49902474EEF0A3EFFD
S2140184E0F07D017E247F76740790B6E6124B4990A4
S2140184F02476E0147006A3E06402600E902475E012
S21401850064F07004902474E0706F740690916512A4
S2140185104B49EF649E4E70279024727404F07F9E40
S2140185207E007406909131124B49D2567FA17E008F
S214018530740690915A124B49D2587F85024B5B9034
S214018540243374FAF0A37402F0A3F0A37469F0A3C1
S21401855074F6F07F04740790FBA9124B4940139000
S214018560247374F4F07F7F7405908000124B4902E7
S2140185704B5BD2587F03024B5B903261E064026032
S21401858013E06403600EE064046009E064056004BF
S214018590E00470057F02024B5B7F82024B5B7F0427
S2140185A0740690EF61124B49902478EEF0A3EFF039
S2140185B0649F4E70647F02740590F111124B49401E
S2140185C01390247374F4F07F7F7405908000124B2F
S2140185D049024B5B7F0B740690A1B0124B494013C6
S2140185E090247374F4F07F7F7405908000124B49D9
S2140185F0024B5B740590EFE2124B494013902473D3
S21401860074F4F07F7F7405908000124B49024B5B37
S214018610C253C2527F03024B5B902478E0FFA3E073
S2140186204F6011903301E0903260F0D256D2587FFD
S21401863085024B5B903261E064026013E064036084
S2140186400EE064046009E064056004E00470057FE0
S21401865002024B5B7F82024B5B7F02740690EF61E6
S214018660124B49EF4E702A7F03740690EF61124B4E
S21401867049EF4E701C7F04740690EF61124B49EF70
S2140186804E700E7F05740690EF61124B49EF4E60F7
S21401869011903301E0903260F0D256D2587F8502B5
S2140186A04B5B903261E0640260030287887D027E44
S2140186B0697FD59024851264B87D017E317F607410
S2140186C00790F03F124B49902C881264B870030251
S2140186D0878590261DE4F0A3743DF0902C881265E2
S2140186E0C2740790FAD1124B497B017A00740112C9
S2140186F0663D8A068B07740790B9F1124B49903292
S214018700B61264EE9032CE1264EE7D027E697FDA96
S2140187109024851264B87D017E317F60740790F0E5
S2140187203F124B49902C881264B8605990261DE47C
S214018730F0A3743DF0902C881265C2740790FAD1AC
S214018740124B497B017A00740112663D8A068B073B
S214018750740790B9F1124B499032BE1264EE903212
S214018760D21264EE7F00740690A1B0124B494013FA
S21401877090247374F4F07F7F7405908000124B4947
S214018780024B5BD253028874903261E0640360034B
S2140187900288742053030288747D027E697FF990F3
S2140187A024851264B87D017E317F60740790F03FA6
S2140187B0124B49902C881264B87003028874902674
S2140187C01DE4F0A3743DF0902C881265C2740790E6
S2140187D0FAD1124B497B017A00740112663D8A0672
S2140187E08B07740790B9F1124B499032B21264EEBE
S2140187F0D2529032B1E0645460030288749032B26F
S21401880012660C7B007A007980783F740B12618EB9
S2140188107062307107903334E0146006903334E0B0
S2140188207052902985E4F0A374A8F0A37401F07F38
S21401883000740690EE70124B49401390247374A78F
S214018840F07F7F7405908000124B49024B5B7F00DE
S214018850740790DAF2124B49401390247374F4F0C3
S2140188607F7F7405908000124B49024B5BD2587F84
S21401887001024B5B205303028A2C205203028A2CEE
S2140188809032CE12660C7B007A00794878C312606B
S21401889000902C881264EEE4FBFAF9F8740B12616E
S2140188A08E70167F007E007DC87C4379017A2C7B12
S2140188B08890600012641B8029902C8812660C7BBD
S2140188C0007A0079C87843740712618E70147F00AD
S2140188D07E007DC87CC379017A2C7B88906000126B
S2140188E0641B90470712660C7B007A0079C87843B0
S2140188F0125D7FC004C005C006C0079032B2126682
S2140189000C7BDC7A0F79497840125D7F8F038E02EB
S2140189108D018C00D007D006D005D004125EED790B
S214018920017A327BD290600012641B7F007E007D4C
S214018930C87C439032D2E0F8A3E0F9A3E0FAA3E0C2
S214018940FB125FFC902C8C1264EEE4FBFAF9F874CF
S2140189500B12618E70167F007E007DC87C43790104
S2140189607A2C7B8C90600012641B8029902C8C12D0
S214018970660C7B007A0079C87843740712618E70A2
S214018980147F007E007DC87CC379017A2C7B8C9095
S214018990600012641B7D027E697FCB90244A1264BC
S2140189A0B87F04740790E351124B49401390247327
S2140189B074F4F07F7F7405908000124B49024B5B84
S2140189C07D027E697FFC90244A1264B87F05740795
S2140189D090E351124B49401390247374F4F07F7F57
S2140189E07405908000124B49024B5B7D027E697FC5
S2140189F0FF9025FD1264B8902C8812660C90260014
S214018A001264EE902C8C12660C9026041264EE7D95
S214018A10017E307F60740790F6B0124B4990326049
S214018A2074FEF0D243D2587F03024B5B903261E072
S214018A306402600FE06403600AE064046005E064B9
S214018A400570057F02024B5B7F82024B5B7F0274DF
S214018A500690EF61124B49EF4E703A7F0374069011
S214018A60EF61124B49EF4E702C7F04740690EF6154
S214018A70124B49EF4E60107F04740690EF61124B63
S214018A8049EF649F4E700E7F05740690EF61124B9E
S214018A9049EF4E6009D256D2587F85024B5B7F0163
S214018AA0740690EF61124B49EF64F04E705B7406EA
S214018AB0909165124B49EF649E4E70279024727414
S214018AC004F07F9E7E007406909131124B49D25677
S214018AD07FA17E00740690915A124B49D2587F8529
S214018AE0024B5B7F0B740690A1B0124B494013906A
S214018AF0247374F4F07F7F7405908000124B490252
S214018B004B5BC2537F03024B5B903261E0640260B1
S214018B100FE06403600AE064046005E06405700524
S214018B207F02024B5B7F82024B5B7F02740690EFF3
S214018B3061124B49EF4E701C7F04740690EF611270
S214018B404B49EF4E700E7F05740690EF61124B494C
S214018B50EF4E6011903301E0903260F0D256D25859
S214018B607F85024B5B903261E064026003028C3CBD
S214018B707D027E697FD59024851264B87D017E31A1
S214018B807F60740790F03F124B49902CB81264B87E
S214018B907003028C3C90261DE4F0A3743DF0902CEB
S214018BA0B81265C2740790FAD1124B497B017A005C
S214018BB0740112663D8A068B07740790B9F1124B51
S214018BC0499032BA1264EE7D027E697FDA9024857E
S214018BD01264B87D017E317F60740790F03F124BBE
S214018BE049902CB81264B8605390261DE4F0A37423
S214018BF03DF0902CB81265C2740790FAD1124B4919
S214018C007B017A00740112663D8A068B0774079011
S214018C10B9F1124B499032C21264EE7F007406908D
S214018C20A1B0124B49401390247374F4F07F7F7403
S214018C3005908000124B49024B5BD253205303022E
S214018C4098E0C2619032BA12660C9032B6E0F8A390
S214018C50E0F9A3E0FAA3E0FB125FFC902CB81264E3
S214018C60EE9032B612660C7B007A0079487843742F
S214018C700712618E70167F007E007D487C43790165
S214018C807A2C7BB890600012641B80147F007E00F3
S214018C907D487CC379017A2C7BB890600012641BF6
S214018CA09032B612660C902CB8E0F8A3E0F9A3E077
S214018CB0FAA3E0FB126000902CC01264EEE4FBFA0B
S214018CC0F9F8740B12618E70167F007E007DC87CE9
S214018CD04379017A2C7BC090600012641B80299036
S214018CE02CC012660C7B007A0079C8784374071290
S214018CF0618E70147F007E007DC87CC379017A2C5A
S214018D007BC090600012641B902CB812660C7B002E
S214018D107A0079007840125EEDC004C005C006C036
S214018D20079032BE12660C7BDC7A0F7949784012C6
S214018D305D7F7B007A0079487843125EED74079078
S214018D40FCF1124B49D003D002D001D000125D7F56
S214018D50902CB81264EE90470712660C7B007A00DE
S214018D6079C87843125D7FC004C005C006C007906D
S214018D7032B212660C7BDC7A0F79497840125D7F3D
S214018D808F038E028D018C00D007D006D005D0044B
S214018D90125EED9032C2E0F8A3E0F9A3E0FAA3E098
S214018DA0FB126000EC4D60036304809032BEE0F875
S214018DB0A3E0F9A3E0FAA3E0FB125FFC7B007A00D4
S214018DC079C878431260007B007A007900784012F7
S214018DD05EED902CBC1264EE9032BE12660C902CA6
S214018DE0BCE0F8A3E0F9A3E0FAA3E0FB1260009070
S214018DF02CC41264EE903E9612660C79017A2C7B96
S214018E00B890600012641B903E9A12660C79017A43
S214018E102C7BBC90600012641B9032B1E0FF64436F
S214018E206003029269902CC012660C903C59E0F8DF
S214018E30A3E0F9A3E0FAA3E0FB125FFC903C611209
S214018E4064EE902CC412660C903C5DE0F8A3E0F949
S214018E50A3E0FAA3E0FB125FFC903C651264EE907F
S214018E602CB812660C740790FB66124B497BCD7AC0
S214018E70CC794C783D740B12618E6003029002909F
S214018E802CBC12660C740790FB66124B497BCD7A9C
S214018E90CC794C783D740B12618E6003029002907F
S214018EA032B212660C7B007A0079C87842740712D7
S214018EB0618E6003029002902CB812660C903E966A
S214018EC01264EE902CBC12660C903E9A1264EE90E0
S214018ED0249374BEF07F01740790FBE3124B499014
S214018EE02655EFF0A37401F0A3743CF0A37479F057
S214018EF0902CB812660C740690F59A124B49902481
S214018F009374BFF07F01740790FBE3124B499026E0
S214018F1055EFF0A37401F0A3743CF0A3747DF090B8
S214018F202CBC12660C740690F59A124B49903C8143
S214018F307401F03042347D027E6A7F179025FD125F
S214018F4064B8902CB812660C9026001264EE902C31
S214018F50BC12660C9026041264EE7D017E317F60A1
S214018F60740790F6B0124B49804E7D027E6A7F25CB
S214018F709025FD1264B8906FE2E493FFE49026001A
S214018F80F0A3EFF0902CB812660C9026021264EE55
S214018F90906FE2E493FFE4902606F0A3EFF0902CA6
S214018FA0BC12660C9026081264EE7D017E317F604D
S214018FB0740790F6B0124B497D017E317F60902890
S214018FC0F71264B87F0074079082AC124B494013C5
S214018FD090247374F4F07F7F7405908000124B49DF
S214018FE0024B5B7F00740790DAF2124B49401390F4
S214018FF0247374F4F07F7F7405908000124B49024D
S2140190004B5B902CB812660C740790FB66124B49AA
S2140190107BCD7ACC794C783D740F12618E7020909E
S2140190202CBC12660C740790FB66124B497BCD7AFA
S214019030CC794C783D740712618E60030290E0D2C1
S214019040563042237D027E6A7F399025FD1264B830
S214019050A3E4F0A374A7F07D017E317F60740790CE
S214019060F6B0124B49802F7D027E6A7F3C9025FD2B
S2140190701264B8A3E4F0A374A7F0906FEBE493FF37
S214019080E4902602F0A3EFF07D017E317F60740745
S21401909090F6B0124B497D017E317F609028F71221
S2140190A064B87F0074079082AC124B494013902439
S2140190B07374A7F07F7F7405908000124B49024BB2
S2140190C05B7F00740790DAF2124B494013902473C9
S2140190D074F4F07F7F7405908000124B49024B5B5D
S2140190E03042347D027E6A7F429025FD1264B8903C
S2140190F03C6112660C9026001264EE903C65126686
S2140191000C9026041264EE7D017E317F6074079018
S214019110F6B0124B49804E7D027E6A7F509025FD47
S2140191201264B8906FE2E493FFE4902600F0A3EF98
S214019130F0903C6112660C9026021264EE906FE28B
