:200000000200500235D3FFFFFFFFFF0247CFFFFFFFFFFF023603FFFFFFFFFF026FBFD21826
:20002000301816C218757A01757BB3757C03757D09757E04123A5F80E775100375111F755B
:200040001203751309120CC822FFFFFFFFFFFFFF75904E7581AFC2D3C2D49000007455F08D
:20006000A3E583B480F7E582B400F2125FBB12184D127130027594754600E546D39405503A
:200080002E757A00757B7F74028546F0A4FFAEF0850883850982126FDAAE83AF828E7C8FEC
:2000A0007D757E04123A5F7846740126F650CB2230170690023FE06002804CAE53AF5474F1
:2000C000056F4E7006740A90023FF0AE53AF5474456F4E7006740590023FF0AE53AF547407
:2000E000066F4E600674076F4E7006740390023FF0AE53AF5474096F4E6006740D6F4E709F
:2001000006740490023FF0301502D20E22E547C3954850560547E58C900031F0E58A900078
:2001200032F0E58D900033F0E58B900034F090002DE0FEA3E0FF900031E0FCA3E0FDEF2DFE
:20014000FDEE3CFC90002DECF0A3EDF090002FE0FEA3E0FF900033E0FAA3E0FBEF2BFBEE26
:200160003AFA90002FEAF0A3EBF0E547B5484975470090002EE0900059F090002DE0900062
:200180005AF0900030E090005DF090002FE090005EF0740090005BF0740090005CF0740008
:2001A00090005FF07400900060F090002DE4F0A3F090002FE4F0A3F022C2AAC2ABC2A9124A
:2001C0003909126DD4854983854A82784B127843E544900C68F8282873020C4C900065E041
:2001E000FEA3E0FF740312781E8F048E05900061E0FEA3E0FF740312781E8F028E038D0615
:200200008C078B048A0512784C900065EEF0A3EFF0E58D900061F0E58B900062F090006568
:20022000E0FEA3E0FF900061E0FCA3E0FDEF2DFDEE3CFC900065ECF0A3EDF0900065E0F5B7
:200240008D900066E0F58B12010DE54760030203E812397D757A00757B7F757C00757D61B5
:20026000757E04123A93757A00757B61757C05757DC6757E04123B00B402031200B0900269
:200280003FE060030203E830110C854B08854C091200770203DF30130C854B08854C091270
:2002A00000770203DF854B83854C827F0C1277F6AE83AF828E7A8F7B854B83854C827F108A
:2002C0001277F6AE83AF828E7C8F7D757E04123A5F854B83854C827F081277F6AE83AF8277
:2002E0008E7A8F7B854B83854C827F0C1277F6AE83AF828E7C8F7D757E04123A5F854B83CF
:20030000854C82A3A3A3A3AE83AF828E7A8F7B854B83854C827F081277F6AE83AF828E7C72
:200320008F7D757E04123A5F854B83854C82AE83AF828E7A8F7B854B83854C82A3A3A3A3C3
:20034000AE83AF828E7C8F7D757E04123A5FA214407375100075117F854B83854C827F105B
:200360001277F6AE83AF828E128F13751400751561120F0F300012757A00757B61757C0043
:20038000757D61757E04123A93757A00757B61757C03757D28757E04123B00B4020B854B11
:2003A00008854C09120077801A757A00757B7F854B83854C82AE83AF828E7C8F7D757E04C5
:2003C000123A5F801A757A00757B7F854B83854C82AE83AF828E7C8F7D757E04123A5F8535
:2003E0004B08854C0912724F020C4C900065E0FEA3E0FF740312781E8F048E05900061E038
:20040000FEA3E0FF740312781E8F028E038D068C078B048A0512784C900065EEF0A3EFF0AC
:20042000E58D900061F0E58B900062F0900065E0FEA3E0FF900061E0FCA3E0FDEF2DFDEE6E
:200440003CFC900065ECF0A3EDF0900065E0F58D900066E0F58BE58A90005DF0E58C900019
:200460005EF0740090005FF07400900060F0E58B900059F0E58D90005AF0E58DD3947F405A
:200480000E74FF90005BF074FF90005CF0800C740090005BF0740090005CF075470090003A
:2004A0002DE4F0A3F090002FE4F0A3F075100075115D751200751359751400751555120E2A
:2004C000DC7510057511C2751200751355751400751561120CE1900062E0701E900063E064
:2004E0007018900064E07012900061E0C394094009900061E0D3940D4006740690023FF0DE
:20050000020C4C900065E0FEA3E0FF740312781E8F048E05900061E0FEA3E0FF7403127895
:200520001E8F028E038D068C078B048A0512784C900065EEF0A3EFF0E58D900061F0E58B49
:20054000900062F0900065E0FEA3E0FF900061E0FCA3E0FDEF2DFDEE3CFC900065ECF0A364
:20056000EDF0900065E0F58D900066E0F58B12010DE547600302065012397D757A00757B43
:200580007F757C00757D61757E04123A93757A00757B61757C05757DC6757E04123B00B4DC
:2005A00002031200B090023FE0600302065075100675110D75120075137F120FA830111240
:2005C000757A00757B7F757C01757D8F757E04123A5F757A00757B7F757C01757D7F757EF4
:2005E00004123A5F75100075112575120175138F120FA875100175117F75120175138F1278
:200600000EC5900025E004900061F07400900062F07400900063F07400900064F075100003
:2006200075116175120175138F120CC875100375111F75120175138F751401751593120FBA
:20064000C175100675110D751201751393120CC8020C4C12010DE547600302070512397D53
:20066000757A00757B7F757C05757DCE757E04123B00B402031200B0757A00757B7F757C58
:2006800005757DD2757E04123B00B401031200B090023FE0706F301112757A00757B7F751D
:2006A0007C01757D3F757E04123A5F757A00757B7F757C01757D2B757E04123A5F75100056
:2006C00075112975120175133F120FA875100175112B75120175133F120EC5900029E0044B
:2006E000900061F07400900062F07400900063F07400900064F075100075116175120175AB
:20070000133F120CC8020C4C12010DE547600302088012397D757A00757B7F757C00757D05
:2007200061757E04123A93757A00757B61757C05757DCA757E04123B00B402031200B09041
:20074000023FE06003020880300E4B900082E0D3947F401A74FF900082F074FF900081F0E7
:2007600074D1900080F0742090007FF080187400900082F07400900081F0742E900080F07C
:2007800074E090007FF0D20FC20E854B08854C0912007702087730110C854B08854C091288
:2007A000007702087730130C854B08854C09120077020877854B83854C827F0C1277F6AED8
:2007C00083AF828E7A8F7B854B83854C827F101277F6AE83AF828E7C8F7D757E04123A5F85
:2007E000854B83854C827F081277F6AE83AF828E7A8F7B854B83854C827F0C1277F6AE83F8
:20080000AF828E7C8F7D757E04123A5F854B83854C82A3A3A3A3AE83AF828E7A8F7B854B79
:2008200083854C827F081277F6AE83AF828E7C8F7D757E04123A5F854B83854C82AE83AF3C
:20084000828E7A8F7B854B83854C82A3A3A3A3AE83AF828E7C8F7D757E04123A5F757A00C9
:20086000757B7F854B83854C82AE83AF828E7C8F7D757E04123A5F854B08854C0912724FC4
:20088000020C4C900065E0FEA3E0FF740312781E8F048E05900061E0FEA3E0FF7403127812
:2008A0001E8F028E038D068C078B048A0512784C900065EEF0A3EFF0E58D900061F0E58BC6
:2008C000900062F0900065E0FEA3E0FF900061E0FCA3E0FDEF2DFDEE3CFC900065ECF0A3E1
:2008E000EDF0900065E0F58D900066E0F58B12010DE5476003020A8F12397D757A00757B7D
:200900007F757C00757D61757E04123A93757A00757B61757C05757DC6757E04123B00B458
:2009200002031200B090023FE06003020A8F30110C854B08854C09120077020A8630130CD8
:20094000854B08854C09120077020A86854B83854C827F0C1277F6AE83AF828E7A8F7B8521
:200960004B83854C827F101277F6AE83AF828E7C8F7D757E04123A5F854B83854C827F0801
:200980001277F6AE83AF828E7A8F7B854B83854C827F0C1277F6AE83AF828E7C8F7D757E49
:2009A00004123A5F854B83854C82A3A3A3A3AE83AF828E7A8F7B854B83854C827F0812772C
:2009C000F6AE83AF828E7C8F7D757E04123A5F854B83854C82AE83AF828E7A8F7B854B839A
:2009E000854C82A3A3A3A3AE83AF828E7C8F7D757E04123A5FA214407375100075117F8586
:200A00004B83854C827F101277F6AE83AF828E128F13751400751561120F0F300012757A2E
:200A200000757B61757C00757D61757E04123A93757A00757B61757C03757D28757E0412F4
:200A40003B00B4020B854B08854C09120077801A757A00757B7F854B83854C82AE83AF825F
:200A60008E7C8F7D757E04123A5F801A757A00757B7F854B83854C82AE83AF828E7C8F7DA8
:200A8000757E04123A5F854B08854C0912724F020C4C12010DE547703C12397D757A0075B1
:200AA0007B7F757C00757D61757E04123A93757A00757B61757C05757DC6757E04123B00F0
:200AC000B402031200B090023FE07009854B08854C09120077020C4C12010DE547703C12D2
:200AE000397D757A00757B7F757C00757D61757E04123A93757A00757B61757C05757DC6DA
:200B0000757E04123B00B402031200B090023FE07009854B08854C09120077020C4C120144
:200B20000DE5476003020C4812397D757A00757B7F757C00757D61757E04123A93757A0094
:200B4000757B61757C05757DCA757E04123B00B402031200B090023FE06003020C48301128
:200B60000C854B08854C09120077020C3F30130C854B08854C09120077020C3F854B838532
:200B80004C827F0C1277F6AE83AF828E7A8F7B854B83854C827F101277F6AE83AF828E7CE9
:200BA0008F7D757E04123A5F854B83854C827F081277F6AE83AF828E7A8F7B854B83854C43
:200BC000827F0C1277F6AE83AF828E7C8F7D757E04123A5F854B83854C82A3A3A3A3AE830C
:200BE000AF828E7A8F7B854B83854C827F081277F6AE83AF828E7C8F7D757E04123A5F8567
:200C00004B83854C82AE83AF828E7A8F7B854B83854C82A3A3A3A3AE83AF828E7C8F7D7520
:200C20007E04123A5F757A00757B7F854B83854C82AE83AF828E7C8F7D757E04123A5F85E4
:200C40004B08854C0912724F8002800090023FE0700FE547700812301D1277E780031278E2
:200C600000126E7B123918220201D90201DC0203EB020503020653020708020883020A92A8
:200C8000020AD8020B1E020C4A020C4C90023F740BF0122FC122C0D0C2D3D2D4C012C013BF
:200CA000120DC57829D082D083121802D0D022C0D0C2D3D2D4C014C015120DC57829D082D1
:200CC000D083121802D0D022C0D0C2D3D2D4C012C013120D6E7829D082D083121802D0D0C4
:200CE00022C0D0C2D3D2D4C014C015120D6E7829D082D083121802D0D022781CC37E04E6DE
:200D00001217D508DEF91217D833500122D378297E0474001217D508DEF822120E240F8014
:200D200005791B12182E1217D833400A781C792F1217F0D38001C37929121825DFE3120C07
:200D4000FA22120E67EF2419FF700722C3791C1218251217D833400A781C792F1217F0D3DF
:200D60008001C37929121825DFE2120CFA22752900752A00752B00752C00C20088838982ED
:200D800078181217F979181218447003120C8CE51B12181A30020578181218388A838B82FE
:200DA000781C1217F9791C1218446018E51F12181A300205781C121838120D1B30000578A6
:200DC0002912183822752900752A00752B00752C00C2008883898278181217F979181218A3
:200DE000447003120C8CE51B12181A30020578181218388A838B82781C1217F9791C121896
:200E0000446020E51F12181A300205781C121838120D42E52C335003120C8C300005782921
:200E2000121838227918782F1217F07832791F7E007F00E77007E6702D181980F67D08335E
:200E40000E50FCEDC39EFDE633401BDEFBBD0002800E0F7918FCC3121825EC334008DDF26F
:200E600018E67D0880EC22791B7F00E7700719EF2408FF80F6330F50FC791F7E00E7700745
:200E800019EE2408FE80F6330E50FCEFC39EFFFD4016BF0001227407C39F5003120C8C7947
:200EA00018C3121825DDF822EFC394F0500122EDF404FDC3791C121825DDF8227E03E7334D
:200EC000F709DEFA22C0D0C2D3D2D4C012C013120F39D082D083120F4CD0D022C0D0C2D355
:200EE000D2D4C014C015120F39D082D083120F4CD0D022C0D0C2D3D2D4C012C013120F39AB
:200F00007818121838D082D083120F4CD0D022C0D0C2D3D2D4C014C015120F397818121883
:200F200038D082D083120F4CD0D022C37E0480030809A3E736F0DEF822888389827818126C
:200F400017F98A838B82781C1217F9227818791C120F2B120F572230D20990023F740BF039
:200F6000122FC1334003C20022D2002290023F740BF0122FC122C0D0C2D3D2D4C012C0134D
:200F80001212197829D082D083121802D0D022C0D0C2D3D2D4C014C0151212197829D0823C
:200FA000D083121802D0D022C0D0C2D3D2D4C012C0131211D77829D082D083121802D0D074
:200FC00022C0D0C2D3D2D4C014C0151211D77829D082D083121802D0D022E5186044851C0B
:200FE000F0A4F52985F02AE518851DF0A4252AF52AE5F03400F52BE518851EF0A4252BF55D
:201000002BE5F0352CF52C5003120F6CE518851FF0A4252CF52C5003120F6CE5F06003129D
:201020000F6CE5196046851CF0A4252AF52AE5F0352BF52B9201E519851DF0A4252BF52B62
:20104000E5F030010104352CF52C5003120F6CE519851EF0A4252CF52C5003120F6CE5F0C7
:201060006003120F6CE51F6003120F6CE51A6032851CF0A4252BF52BE5F0352CF52C5003AC
:20108000120F6CE51A851DF0A4252CF52C5003120F6CE5F06003120F6CE51E451F6003129B
:2010A0000F6CE51B601F851CF0A4252CF52C5003120F6CE5F06003120F6CE51D451E451F21
:2010C0006003120F6CE52C335003120F6C22E518851EF0A485F029E518851FF0A42529F590
:2010E00029E5F03400F52AE5196035851DF0A4E5F02529F5299201E519851EF0A42529F58A
:2011000029E5F030010104352AF52A5003752B01E519851FF0A4252AF52AE5F0352BF52B30
:20112000E51A6051851CF0A4E5F02529F5299201E51A851DF0A42529F529E5F0300101044A
:20114000352AF52A9201E51A851EF0A4252AF52AE5F030010104352BF52B9201E51A851F19
:20116000F0A4252BF52BE5F030010104352CF52C5003120F6CE51B6055851CF0A42529F5D1
:2011800029E5F0352AF52A9201E51B851DF0A4252AF52AE5F030010104352BF52B9201E599
:2011A0001B851EF0A4252BF52BE5F030010104352CF52C5003120F6CE51B851FF0A4252C77
:2011C000F52C5003120F6CE5F06003120F6CE52C335003120F6C22752900752A00752B0026
:2011E000752C00C2008883898278181217F912181A30020578181218388A838B82781C1297
:2012000017F912181A300205781C121838120FDA300005782912183822752900752A007546
:201220002B00752C00C2008883898278181217F912181A30020578181218388A838B827859
:201240001C1217F912181A300205781C1218381210CE30000578291218382290023F740B45
:20126000F0122FC122C0D0C2D3D2D4C010C01112135A7829D082D083121802D0D022C0D0AB
:20128000C2D3D2D4C012C01312135A7829D082D083121802D0D022C0D0C2D3D2D4C010C060
:2012A000111213827829D082D083121802D0D022C0D0C2D3D2D4C012C0131213827829D0BA
:2012C00082D083121802D0D022C3C201C2037E048004080A0B0CEAF9E67D003003030DC286
:2012E000033001030DC2019D5003D201C3975003D203C3FDEBF9ED97FDECF9EDF7DED322E1
:201300007F10751C00751D00751E00751F4078187A297B1C7C2F1212C9334015792F781892
:201320001217F0792C12182E7929781C1213C08005792C12182E791F12182E791F12182E1A
:20134000DFCCC3E5299518E52A9519500CE5293400F529E52A3400F52A22752900752A002A
:20136000752B00752C008883898278181217F97918121844600BE51B33500312125B1213D0
:201380000022752900752A00752B00752C008883898278181217F97918121844600BE51B7B
:2013A00033500312125B121300852B2C852A2B85292A7529007F047929C3121825DFF822A7
:2013C0007E04E746F70809DEF922F7433267AC1DBBAD0F6FF507ABFE03D5FF01FBFF00FF65
:2013E0007F000040000020000010000008000004000002000001008000004000002000000F
:20140000100000080000D57E4806B51F9201C3E9F8E613F618E613F618E613F6DEF0500BE2
:2014200006E670070806E67002080622D3E9F8E613F618E613F618E613F6DEF0400B06E6FD
:2014400070070806E67002080622852F3285303385313485292C852A2D852B2E22E627F60E
:201460000809E637F60809E637F622C3E697F60809E697F60809E697F622C374009336F6AC
:20148000A308DEF722C3740093F5F0E695F0F7A30809DEF222D37E03E6F450022401F60850
:2014A000DEF622C204C205C206E51B30E70F78187E0490140612147A20E7F38018781879C4
:2014C0001C7E0490140612148520E709791C78181217F080E87F0090140A7818791C7E048F
:2014E00012148520E70A791C78181217F00F80E7BF0306D204D2068010BF0206D204D20502
:201500008007BF0104D205D206791B12182E791B12182E22E53175320030E7037532FF79E1
:201520002FC3121825792FC3121825E52B752C0030E7037532FF7929C31218257929C31214
:201540001825300405782F121838300505782912183822782F792C12146B7829793212145E
:201560005D22782F792C12145D7829793212146B22752F3B7530DD75312675293B752ADD9C
:20158000752B26D2007F019013CA7818121495781879187E03200005121485800312147AE6
:2015A00020E704C2008002D20012144AEFFE792EE720E70512140E800312142CEFFE793470
:2015C000E720E70512140E800312142C20000512156280031215530FEFC3940E40B122C02E
:2015E000D0C2D3D2D4C011C0108883898278181217F91214A3121571121514300604782900
:201600008002782FD083D082121802300604782F800278298A838B82121802D0D022C0D034
:20162000C2D3D2D4C0158883898278181217F91214A3121571121514300604782980027861
:201640002F8A838B82121802300604782F800278298C83D082121802D0D02290023F740B72
:20166000F0122FC1224BD153FB00A5E8A97D53F4D43E297A6A1FAAFD900CD57E4806C0D040
:20168000C2D3D2D4C014C01512178212169AD082D0837829121802D0D022E52D60203350B0
:2016A0000F78297E0590166512147A3340F3800E782979297E0590166512148570F2E52C69
:2016C00033500E792978297E0490166A12148580ED33500F792978297E0490166E12148576
:2016E0003380EE335010792978297E04901672121485333380C8335011792978297E049097
:20170000167612148533333380EC782979187E0490167A121485334009791878291217F047
:2017200080E822791E7A187B291BC203C2018010791CC201C20374291414C39B70020B0959
:20174000EAF886F0E7A4FDEBF8742914C39B6007EDC31217D59201080BE5F030030104A24D
:20176000011217D5920309741FC39950D30AEBC39403FB741BC39A50B7E52D3350031216BD
:201780005B2212180B752D008883898278181217F97918121844603CE51B12181A30020517
:2017A00078181218388A838B82781C1217F9791C121844601FE51F12181A300205781C12C0
:2017C000183812172330000C7829121838E52DF43400F52D2236F622781C7A187B2F7E0410
:2017E000C3EAF9E697FDEBF9EDF7080A0BDEF2227E04E7F60809DEFA227E04E0F608A3DEA7
:20180000FA227E04E6F008A3DEFA22C200752900752A00752B00752C0022334003C20222F1
:20182000D202B200227E04E733F709DEFA22C37E04E713F719DEFA227E04D3E6F43400F6C8
:2018400008DEF8227E04E7700309DEFA2274609006BAF0C230C231C232D233C234C2357555
:201860006500756600756C00756D2875480475640075710075700074BC900328F0740290F7
:201880000329F0740090032AF0740090032BF074B8900323F07400900324F07400900325D0
:2018A000F07400900326F0740190031FF07400900320F07400900321F07400900322F07547
:2018C0006A01754F0075500074B3900327F074C8900024F0900023E4F0900022E4F07400E2
:2018E0009001C0F074009001C1F074009001C2F074009001CCF074009001CDF074009001B2
:20190000CEF07405900025F07400900026F07400900027F07400900028F0740F900029F06E
:20192000740090002AF0740090002BF0740090002CF0744C9006A2F074BE9006A3F0748C07
:201940009006A4F074009006A5F074599006A6F074A59006A7F074A79006A8F07405900627
:20196000A9F0743A9006AAF074469006ABF074F19006ACF074009006ADF0743D9006AEF0E2
:2019800074029006AFF0742F9006B0F074059006B1F07400900631F07400900632F07480C8
:2019A000900633F07402900634F074009005EDF074009005EEF074009005EFF07400900580
:2019C000F0F074019005F1F074009005F2F074009005F3F074009005F4F074049005F5F086
:2019E00074009005F6F074009005F7F074009005F8F074059005F9F074009005FAF07400B9
:201A00009005FBF074009005FCF074089005FDF074009005FEF074009005FFF0740090065A
:201A200000F07415900601F07400900602F07400900603F07400900604F07410900605F0A0
:201A40007400900606F07400900607F07400900608F07457900609F0740090060AF07400B1
:201A600090060BF0740090060CF074FF90060DF0740090060EF0740090060FF074009006AE
:201A800010F07490900611F0749C900612F07400900613F07400900614F07400900615F0D9
:201AA00074EE900616F07402900617F07400900618F07400900619F0740090061AF0740068
:201AC00090061BF0740190061CF0740090061DF0740090061EF0740090061FF074029006FA
:201AE00020F07400900621F07400900622F07400900623F07408900624F07400900625F03D
:201B00007400900626F07420900627F07400900628F074FF900629F074FF90062AF074FF8A
:201B200090062BF074FF90062CF0740090062DF0740090062EF0740090062FF074FF90064E
:201B400030F0747C900635F074D9900636F074A0900637F07400900638F074DB900639F0A0
:201B6000740F90063AF074C990063BF0740090063CF074F790063DF074B290063EF0744121
:201B800090063FF07401900640F074B5900641F0741F900642F07492900643F07401900620
:201BA00044F07473900645F0748C900646F074E2900647F07401900648F07490900649F03A
:201BC000742F90064AF0745B90064BF0740290064CF074EF90064DF0746590064EF07483D0
:201BE00090064FF07402900650F0746B900651F0743F900652F07424900653F07403900605
:201C000054F074E6900655F07418900656F074C5900657F07403900658F07445900659F0E0
:201C2000744F90065AF074ED90065BF0740390065CF0746290065DF074F290065EF074658A
:201C400090065FF07404900660F07420900661F0745F900662F074B6900663F074049006EA
:201C600064F074DE900665F074CB900666F07406900667F07405900668F074FA900669F07D
:201C8000746E90066AF0747F90066BF0740590066CF0745990066DF074A590066EF074A73B
:201CA00090066FF07405900670F074D5900671F0747E900672F07448900673F074069006D1
:201CC00074F07465900675F07479900676F07444900677F07406900678F07470900679F0D3
:201CE000740590067AF0740490067BF0740090067CF0748490067DF0740090067EF0740095
:201D000090067FF07400900680F07470900681F07405900682F07404900683F0740090064D
:201D200084F07452900685F074B8900686F0741E900687F07400900688F07452900689F030
:201D400074B890068AF0741E90068BF0740090068CF0742990068DF0745C90068EF0740F07
:201D600090068FF07400900690F0749A900691F07499900692F07419900693F074009006CA
:201D800094F07412900695F07483900696F07400900697F07400900698F0740A900699F04B
:201DA00074D790069AF0740390069BF0740090069CF0740A9002AEF074009002AFF07400C3
:201DC0009002B0F074009002B1F074009002C5F074009002C6F074009002C7F074009002F0
:201DE000C8F074009002C9F074009002CAF074009002CBF074009002CCF0741F90039EF075
:201E0000745990039FF074A59003A0F074A79003A1F074059003A2F074009003A3F07400AC
:201E20009003A4F074009003A5F074009003A6F074FA9003A7F0746E9003A8F0747F900317
:201E4000A9F074059003AAF0741E9003ABF074629003ACF074F29003ADF074659003AEF0DE
:201E600074049003AFF074DB9003B0F0740F9003B1F074C99003B2F074009003B3F07400EF
:201E80009003B4F074009003B5F074009003B6F074009003B7F0741C9003B8F0746B9003C7
:201EA000B9F0743F9003BAF074249003BBF074039003BCF074B59003BDF0741F9003BEF0C0
:201EC00074929003BFF074019003C0F074DB9003C1F0740F9003C2F074C99003C3F07400B0
:201EE0009003C4F074189003C5F074739003C6F0748C9003C7F074E29003C8F074019003A4
:201F0000C9F074909003CAF0742F9003CBF0745B9003CCF074029003CDF074B59003CEF068
:201F2000741F9003CFF074929003D0F074019003D1F074109003D2F0747C9003D3F074D92E
:201F40009003D4F074A09003D5F074009003D6F0746B9003D7F0743F9003D8F0742490037F
:201F6000D9F074039003DAF074909003DBF0742F9003DCF0745B9003DDF074029003DEF05A
:201F800074009003DFF074599003E0F074A59003E1F074A79003E2F074059003E3F0746B80
:201FA0009003E4F0743F9003E5F074249003E6F074039003E7F074909003E8F0742F900318
:201FC000E9F0745B9003EAF074029003EBF074019003ECF074629003EDF074F29003EEF007
:201FE00074659003EFF074049003F0F074459003F1F0744F9003F2F074ED9003F3F07403F8
:202000009003F4F0746B9003F5F0743F9003F6F074249003F7F074039003F8F074039003B8
:20202000F9F0746B9003FAF0743F9003FBF074249003FCF074039003FDF074209003FEF007
:20204000745F9003FFF074B6900400F07404900401F07445900402F0744F900403F074ED96
:20206000900404F07403900405F07407900406F07473900407F0748C900408F074E29004EB
:2020800009F0740190040AF074FA90040BF0746E90040CF0747F90040DF0740590040EF046
:2020A000742090040FF0745F900410F074B6900411F07404900412F0740F900413F0747CBB
:2020C000900414F074D9900415F074A0900416F07400900417F07400900418F074009004AD
:2020E00019F0740090041AF0740090041BF074FA90041CF0746E90041DF0747F90041EF08C
:20210000740590041FF074C1900382F074FF900383F074FF900384F07400900385F074493D
:20212000900386F0744B900387F07455900388F07400900389F0745C90038AF0743890035D
:202140008BF0749890038CF0740090038DF0745090038EF0741990038FF074AB900390F0BF
:202160007400900391F07431900392F0740A900393F0749A900394F07400900395F074B9AB
:20218000900396F074E1900397F0746B900398F07400900399F0742590039AF074B29003BE
:2021A0009BF0743390039CF0740090039DF074149005C2F074059005C3F074009005C4F0ED
:2021C00074009005C5F0742A9005C6F074E39005C7F0742A9005C8F074009005C9F074E0B4
:2021E0009005CAF0742E9005CBF074009005CCF074009005CDF0741C9005CEF07425900502
:20220000CFF074009005D0F074009005D1F074A09005D2F0740F9005D3F074009005D4F059
:2022200074009005D5F0900332740DF0A3741DF0900334740EF0A3740BF0900336740EF0F0
:20224000A37408F0900338740EF0A3749BF090033A740EF0A37498F090033C740FF0A37459
:2022600037F090033E740FF0A37434F0900340740FF0A374E0F0900342740FF0A374DDF05F
:202280009003447410F0A37499F09003467410F0A37496F09003487411F0A37463F090031C
:2022A0004A7411F0A37460F090034C7411F0A374F5F090034E7411F0A374F2F09003507402
:2022C00012F0A37491F09003527412F0A3748EF09003547413F0A37437F09003567413F078
:2022E000A37434F09003587413F0A374EAF090035A7413F0A374E7F090035C7414F0A37480
:20230000AAF090035E7414F0A374A7F09003607415F0A3747AF09003627415F0A37477F033
:202320009003647416F0A3745AF09003667416F0A37457F09003687417F0A3744EF090039C
:202340006A7417F0A3744BF090036C7418F0A37457F090036E7418F0A37454F0900370741E
:2023600019F0A37479F09003727419F0A37476F0900374741AF0A374B7F0900376741AF00B
:20238000A374B4F0900378741CF0A37415F090037A741CF0A37412F090037C741DF0A3748E
:2023A0009AF090037E741DF0A37497F09003807420F0A37497F07400900237F074009002FB
:2023C00038F07400900239F0740090023AF07400900207F07400900208F07400900209F07C
:2023E000740090020AF09002B3E4F0756E00C22075B800C210C212D211C241C225C226C2B5
:202400002322757102E572902AAAF82828739006C1E0F56CC223E56C5480B48008D223E561
:202420006C540FF56C022AA9022AA9750B05750A00E50AD394035020E50B9006BF12783AEC
:20244000E50AFEE0FFEE9002B512783AEFF0150B780A740126F650D9022AA9750B05750AA3
:2024600000E50AD394035020E50B9006BF12783AE50AFEE0FFEE9002B912783AEFF0150BC2
:20248000780A740126F650D9022AA9750B05750A00E50AD394035020E50B9006BF12783A55
:2024A000E50AFEE0FFEE9002BD12783AEFF0150B780A740126F650D9022AA9750B05750A3B
:2024C00000E50AD394035020E50B9006BF12783AE50AFEE0FFEE9002C112783AEFF0150B5A
:2024E000780A740126F650D9022AA9750B05750A00E50AD394035020E50B9006BF12783AF5
:20250000E50AFEE0FFEE9002C512783AEFF0150B780A740126F650D9757A02757BC5757C14
:2025200000757D69757E04123A93757A00757B69757C06757D8D757E04123B00B402247519
:202540007A05757BED757C02757DC5757E04123A5F757A05757BED757C02757DC9757E045D
:20256000123A5F022AA9750B05750A00E50AD394035020E50B9006BF12783AE50AFEE0FF39
:20258000EE9002C912783AEFF0150B780A740126F650D9757A02757BC9757C00757D697588
:2025A0007E04123A93757A00757B69757C06757D8D757E04123B00B40224757A05757BED0D
:2025C000757C02757DC5757E04123A5F757A05757BED757C02757DC9757E04123A5F022A62
:2025E000A9750B05750A00E50AD394035020E50B9006BF12783AE50AFEE0FFEE9002CD1231
:20260000783AEFF0150B780A740126F650D9022AA99006C1E090031FF07400900320F07494
:2026200000900321F07400900322F090031FE0F56A90031FE0540F90031FF0E56AC4540FDF
:20264000F56AE56AC394014007E56AD3940A4003756A0190031FE0C39401400990031FE085
:20266000D394054006740190031FF0022AA9750B05750A00E50AD394035020E50B9006BFAA
:2026800012783AE50AFEE0FFEE90032312783AEFF0150B780A740126F650D9022AA9022A06
:2026A000A9022AA9022AA9022AA9022AA9022AA9022AA9022AA9750B05750A00E50AD39444
:2026C000035020E50B9006BF12783AE50AFEE0FFEE90031912783AEFF0150B780A74012638
:2026E000F650D9022AA9022AA9022AA9750B05750A00E50AD394035020E50B9006BF1278A0
:202700003AE50AFEE0FFEE9002D112783AEFF0150B780A740126F650D9022AA9022AA902B7
:202720002AA99006C0E0F50B750A00E50B14C3950A401EE50A9006C112783AE50AFEE0FF77
:20274000EE90042112783AEFF0780A740126F650DA022AA99006C1E0900420F0022AA990E1
:2027600006C0E0F50B750A00E50B14C3950A401EE50A9006C112783AE50AFEE0FFEE900418
:20278000F212783AEFF0780A740126F650DA022AA99006C1E09004F1F0022AA99006C1E0DA
:2027A000654F6003854F509006C1E0F54F7571019002B2E4F0D21EC21FC21DC236E54FB4D4
:2027C0000806C225C2268048E54FB40A08740F9002B2F0803BE54FB40B08742D9002B2F018
:2027E000802EE54FB40F08740F9002B2F08021E54FB40304D21A8018E54FB4020874149057
:2028000002B2F0800BE54FB40C0674059002B2F09002B2E0F56B022AA9022AA9022AA9904F
:2028200006C1E0F56D022AA9022AA9022AA9022AA9750B05750A00E50AD394035020E50B7E
:202840009006BF12783AE50AFEE0FFEE90030512783AEFF0150B780A740126F650D9022AE2
:20286000A9022AA9022AA9750B05750A00E50AD394035020E50B9006BF12783AE50AFEE062
:20288000FFEE90030D12783AEFF0150B780A740126F650D9022AA9750B05750A00E50AD311
:2028A00094035020E50B9006BF12783AE50AFEE0FFEE90031112783AEFF0150B780A7401F0
:2028C00026F650D9022AA9750B05750A00E50AD394035020E50B9006BF12783AE50AFEE03B
:2028E000FFEE90031512783AEFF0150B780A740126F650D9022AA97571049006C2E09006B7
:202900009FF09006C1E090069EF0022AA9750B05750A00E50AD394035020E50B9006BF12D4
:20292000783AE50AFEE0FFEE9006A212783AEFF0150B780A740126F650D9022AA9750B059A
:20294000750A00E50AD394035020E50B9006BF12783AE50AFEE0FFEE9006A612783AEFF08D
:20296000150B780A740126F650D9022AA9750B05750A00E50AD394035020E50B9006BF1202
:20298000783AE50AFEE0FFEE90069112783AEFF0150B780A740126F650D9022AA9750B054B
:2029A000750A00E50AD394035020E50B9006BF12783AE50AFEE0FFEE90068512783AEFF04E
:2029C000150B780A740126F650D9022AA9750B05750A00E50AD394035020E50B9006BF12A2
:2029E000783AE50AFEE0FFEE90068912783AEFF0150B780A740126F650D9022AA9750B05F3
:202A0000750A00E50AD394035020E50B9006BF12783AE50AFEE0FFEE90069512783AEFF0DD
:202A2000150B780A740126F650D9807D750B05750A00E50AD394035020E50B9006BF1278A1
:202A40003AE50AFEE0FFEE90069912783AEFF0150B780A740126F650D9804E750B05750A82
:202A600000E50AD394035020E50B9006BF12783AE50AFEE0FFEE90068D12783AEFF0150BE4
:202A8000780A740126F650D9801F9006C1E090031DF0754F00755000800F9006C1E09003A2
:202AA00027F0757103800280002202240E02242802242B02245B02248B0224BB0224EB02F9
:202AC00025660225E102261102266E02269E0226A10226A40226A70226AA0226AD0226B0EB
:202AE0000226B30226B60226E60226E90226EC02271C02271F02272202275402275F0227E4
:202B00009102279C02281902281C02281F02282802282B02282E0228310228610228640218
:202B200028670228970228C70228F702290D02293D02296D02299D0229CD0229FD022A2CBB
:202B4000022A5B022A8A022A9A022AA7022AA9302602C13D20240AD224756EFF756F0A61FF
:202B6000F57510017511D375120275139A751400751569120F0F757A00757B69757C00757C
:202B80007D69757E04123A937510017511D775120275139E75140075156D120F0F757A0048
:202BA000757B6D757C00757D6D757E04123A9390006AE0703090006BE0702A90006CE07057
:202BC00024900069E0C3940A501B90006EE0701590006FE0700F900070E0700990006DE035
:202BE000C3940A40028008E56F6002156F8006756EFF756F0A757A01757BD3757C02757D82
:202C00009A757E04123A5F757A01757BD7757C02757D9E757E04123A5FE56F6002C13D30B8
:202C20002805C228756EFF124D1AE56E6002C13D75100275118675120275137E751400754F
:202C40001569120F0F7510027511BD751200751369120F76300012757A00757B69757C0072
:202C6000757D69757E04123A93757A00757B69757C02757DD1757E04123B00B401028002A8
:202C8000A1BC75100275118A751202751382751400751569120F0F7510027511C1751200AC
:202CA000751369120F76300012757A00757B69757C00757D69757E04123A93757A00757B01
:202CC00069757C02757DD1757E04123B00B401028002A1B8D22675100275118E751202756E
:202CE00013C5751400751569120EDC7510027511BD751200751369120F76300012757A007A
:202D0000757B69757C00757D69757E04123A93757A00757B69757C06757D89757E04123B3A
:202D200000B401028002A1B67510027511927512027513C9751400751569120EDC7510028B
:202D40007511C1751200751369120F76300012757A00757B69757C00757D69757E04123A04
:202D600093757A00757B69757C06757D89757E04123B00B40140D227D22375100275119240
:202D80007512027513C9120EC575100275118E7512027513C5120EC575100675111D751269
:202DA000027513C5120C9675100675111D7512027513C9120C968002D2288002D228202814
:202DC0007C202721745D900069F0750AFF750B01750C00750D69750E07750FBE1276538EB5
:202DE000088F0980517422900069F0750AFF750B01750C00750D69750E07750FBE127653D1
:202E00008E088F09750A6B750B04750C02750DC585080E85090F1276538E088F09750A6C20
:202E2000750B04750C02750DC985080E85090F1276538E088F09C2A81271C2D2A82216643A
:202E40006667686A6B6C6D6E6F7172737475767778797A7B8A8B8C919293949DA5A6A7A87E
:202E6000A9B3B7B8BAD2D3D4D5D6D7D8D9DADBDCDDFAFDFF00006C000002B502B902BD021E
:202E8000C102C502C902CD031F032301BF01CB01BB01B701C701C301DB01CF031901D3019F
:202EA000D702D102D502D90421042004F204F1004F02ED02F1006D02F502F90010030503D7
:202EC00009032C030D03110315069E06A206A606910685068906950699068D031D032703BB
:202EE0001E0000010100C20D000000040000000400000004000000040000000400000004CB
:202F000000000004000000010101A5040000000100000001000000040000000400000004F3
:202F2000000000040000000400000002000000040000000200000002000000040000000477
:202F400000000004000000D000000001010109D0000000010101090101010F04000000049B
:202F6000000000010101FF04000000040000000D000000040000000400000001010000042C
:202F8000000000040000000400000002000000040000000400000004000000040000000413
:202FA0000000000400000004000000040000000100000001000000010000000000000042C0
:202FC0000030202E75A80075904E20221BD22274FF9007BEF074019007BFF090023FE0246A
:202FE000509007C0F01271C290023FE4F01239F7800A90023FE4F0D2201239F722FFFFFF8C
:2030000090007AE0540090007AF090007AE0455290007AF090007AE0908001F022AE49AF4A
:203020004A74022FFF50010E8E498F4A30364E7551FF7552FFC23685504FE54FB40A0874CA
:203040000F9002B2F0802EE54FB40B08742D9002B2F08021E54FB40F08740F9002B2F080D8
:2030600014E54FB40304D21A800BE54FB4020674149002B2F09002B2E0F56B800B854983CA
:20308000854A827851127843E54F7003754F100555754401753E4F753FE77540ED7541EBDA
:2030A0007542FD7543FBAE51AF5274FF52077E0074156F4E6010AE51AF5274FF52077E005F
:2030C00074256F4E705B110005551239EE908000E0900079F0AE49AF4A74022FFF50010E4F
:2030E0008E498F4A854983854A82784B127843854B83854C827F141277F6A883A982900050
:2031000079E088838982F0AF49AC4A74022CFC50010F8F498C4A854983854A8278511278C1
:2031200043AE51AF52EFB40006EEB4040280024197D218AE49AF4AE55575F004A4FDACF0E7
:2031400012784C8E088F0974022FFF50010E8E088F09850883850982784D127843E55560EE
:203160004A1555854D83854E827F141277F6AE83AF828E7A8F7B854D83854E827F181277A1
:20318000F6AE83AF828E7C8F7D757E04123A5FAE08AF0974042FFF50010E8E088F098508F1
:2031A00083850982784D12784380B2AE49AF4A74022FFF50010E8E498F4A854983854A8273
:2031C000A3E5622456F8E493F6E5622456F88664E5646407600BE564640D6005E564B40E3A
:2031E000079002B4E4F08010E56464106005E564B411059002B4E4F0300F08C20F9002B471
:203200007401F0AE49AF4A74022FFF50010E8E498F4A854983854A827851127843E562B473
:203220000B0575620080020562E562B56307740790023FF022AE51AF52EFB4005AEEB40457
:2032400056AC49AD4A74022DFD50010C8C498D4A854983854A82A3E5622456F8E493F674A4
:20326000022DFD50010C8C498D4A854983854A827851127843E562B40B0575620080020578
:2032800062E562B56307740790023FF022302A02C22A302D02C22DAE51AF52EFB4FF06EEDC
:2032A000B4FF02800261C5755500900021E0703F754947754AA1854983854A82785112784D
:2032C00043AE49AF4A74022FFF50010E8E498F4A900024E0900021F0754402753EEB753FC6
:2032E000EB7540FD7541FD7542FD7543FB61C3302928C229C22BD22A754945754A398549D5
:2033000083854A827851127843AE49AF4A74022FFF50010E8E498F4A61C3302C28C22CC248
:203320002ED22D754945754A59854983854A827851127843AE49AF4A74022FFF50010E8E8C
:20334000498F4A807E900023E0703C900022E0C394645006900022E004F0900022E09000C3
:2033600023F0754945754A1D754403854983854A827851127843AE49AF4A74022FFF500182
:203380000E8E498F4A803C900023E06006900023E014F0E54F9047AD12780F784912784344
:2033A000854983854A827851127843AE49AF4A74022FFF50010E8E498F4A301C04C211808F
:2033C00002D21C800FAE49AF4A74022FFF50010E8E498F4AE564B4016175100175117F756C
:2033E000120175138F751400751565120F0F300012757A00757B65757C00757D65757E0436
:20340000123A9374EE900061F07411900062F07400900063F07400900064F0757A00757B95
:2034200065757C00757D61757E04123B00B4020A900023E4F0900022E4F0754804C212C27B
:2034400017C216C215D213D214AE51AF5274FF52077E0074856F4E6020AE51AF5274FF5296
:20346000077E0074456F4E6010AE51AF5274FF52077E0074C56F4E7005D212754801AE518B
:20348000AF5274FF52077E0074456F4E7003754404AE51AF5274FF52077E0074856F4E60DB
:2034A00010AE51AF5274FF52077E0074C56F4E7003754405AE51AF5274FF52077E0074309D
:2034C0006F4E7008754409D212754801AE51AF5274FF52077E0074096F4E6010AE51AF525F
:2034E00074FF52077E00740D6F4E7023A229B35006A22AB3B3400DA22CB35006A22DB3B352
:20350000400280087544077548018003754401AE51AF5274FF52077E0074066F4E6010AE87
:2035200051AF5274FF52077E0074076F4E7023A229B35006A22AB3B3400DA22CB35006A258
:203540002DB3B3400280087544087548018003754406AE51AF527C107D00EE5204EF5205BA
:20356000ED4C7002C213AE51AF527C087D00EE5204EF5205ED4C7002C214AE51AF527C80C3
:203580007D00EE5204EF5205EDB40006ECB48002D217AE51AF527C407D00EE5204EF5205AF
:2035A000EDB40006ECB44002D216AE51AF527C207D00EE5204EF5205EDB40006ECB420028E
:2035C000D215AE51AF5274FF52077E008E538F54110022C2AF75A800C2A83096087590ED0B
:2035E0002096FD80067590EB3096FD75904E75D000126FEB1270007581AF7494C0E0747523
:20360000C0E032854590758840202F0E2010083096FD75880080082096FD7588008000C272
:20362000AAC28BC0D0C0E0C0F0C082C08375D000E58C900061F0E58A900062F0E58D900044
:2036400065F0E58B900066F0C000C001C002C003C004C005C006C007758BF6758DFF7588AF
:2036600040202F0620100302376D308FFD758800758B6C758DFF758A00758C0085439075E9
:2036800088503096FD758840A88A308FFD758800758B6C758DFF758A00758C00854290752E
:2036A00088502096FD758840AC8A308FFD758800758B6C758DFF758A00758C008543907519
:2036C00088503096FD758840A98A308FFD758800758B6C758DFF758A00758C0085429075ED
:2036E00088502096FD758840AD8A308FFD758800758B6C758DFF758A00758C0085439075D8
:2037000088503096FD758840AA8A308FFD758800758B6C758DFF758A00758C0085429075AB
:2037200088502096FD758840AE8A308FFD758800758B6C758DFF758A00758C008543907596
:2037400088503096FD758840AB8A308FFD758800758B6C758DFF758A00758C00854290756A
:2037600088502096FD758800AF8A02386D308FFD758800758B6C758DFF758A00758C008536
:2037800042907588502096FD758840A88A308FFD758800758B6C758DFF758A00758C00853D
:2037A00043907588503096FD758840AC8A308FFD758800758B6C758DFF758A00758C008508
:2037C00042907588502096FD758840A98A308FFD758800758B6C758DFF758A00758C0085FC
:2037E00043907588503096FD758840AD8A308FFD758800758B6C758DFF758A00758C0085C7
:2038000042907588502096FD758840AA8A308FFD758800758B6C758DFF758A00758C0085BA
:2038200043907588503096FD758840AE8A308FFD758800758B6C758DFF758A00758C008585
:2038400042907588502096FD758840AB8A308FFD758800758B6C758DFF758A00758C008579
:2038600043907588503096FD758800AF8A75904E900061E0F58C900062E0F58A900065E064
:20388000F58D900066E0F58B302F08758D00758B00C22F900062E829F0F8740034009000D3
:2038A00061F0F9E82A900062F0F8900061E93400F0F9E82B900062F0E99000613400F09058
:2038C0000066EC2DF0F874003400900065F0F9E82E900066F0F8900065E93400F0F9E82FF5
:2038E000900066F0E99000653400F0D007D006D005D004D003D002D001D0001201B9D08325
:20390000D082D0F0D0E0D0D032900035E8F07801A3E6F008B820F9229000367801E0F6A3D1
:2039200008B820F9900035E0F822309613C2108540907588402096FD75880075904E80111E
:20394000D2108541907588403096FD75880075904E1201B922903969E58AB4F002800240E8
:20396000F7C3E58A94FF540F730000000000000000000000000000000075880022C0D0C244
:20398000D3D2D4900059A883A982900055AA83AB82900061AC83AD82120FC19005C2A8837D
:2039A000A982900061AA83AB82900061AC83AD82120CE190005DA883A982900061AA83AB37
:2039C0008290007FAC83AD82120F0FD0D030120520101A800330101590007F85837A858227
:2039E0007B85837C85827D757E04123AC4227A0179FFD9FEDAFA22C2AF3096087590ED200A
:203A000096FD80067590EB3096FD75904EC2A9C2ABC2AA75D0007581AF1271307494C0E0FE
:203A20007475C0E075710132A87AA97BAA7CAB7DAC7E22C0D0123A28EC600A8A838B82E7A9
:203A4000F009A3DCFAD0D022C0D0123A28EC600C88838982EBF8E0F608A3DCFAD0D022C004
:203A6000D0123A28EC601689828883E0A3A982A8838B828A83F0A3AB82AA83DCEAD0D02222
:203A8000C0D0123A28EC6008EBF8E7F60809DCFAD0D022C0D0123A2889828883A3A3A3E082
:203AA000335006123AC4023AAC123A5FD0D022C0D0123A28E7335006123AE9023AC1123A26
:203AC00080D0D022C0D0123A28EC601AD389828883E0A3A982A883F434008B828A83F0A3A3
:203AE000AB82AA83DCE7D0D022C0D0123A28EC600CEBF8D3E7F43400F60908DCF7D0D0222A
:203B0000C0D0123A28C002C003757D35757E04123A48D001D000887A897B757D39757E04A1
:203B2000123A48E53833400CE53C335013753D02E53D805DE53C334032753D01E53D80517F
:203B4000E538B53C16E537B53B11E536B53A0CE535B53907753D00E53D80364007753D027A
:203B6000E53D802D753D01E53D8026757A39757B39757C39757D39757E04123AE9757A3505
:203B8000757B35757C35757D35757E04123AE980AFD0D02290023FE0903DFE25E073E5635A
:203BA00065627002A1C7E5632456F8E6903E1E25E073A1C7123FCC1247EAA1C712001E12EE
:203BC00064BFC21E1247EAA1C71277A11247EAA1C712775B1247EAA1C712480090032DE0D9
:203BE00090032CF0D22B1247EAA1C7125A9ED22E1247EAA1C71275F51274601247EAA1C7AC
:203C000012709B1273E6125D321274CC126399303222C2A8D234750AFF750B01750C06752C
:203C20000DBA750E07750FBE1276538E088F091271C2D2A81247EAA1C71272D9126BB812DA
:203C40005BE912626D1247EAA1C7A21E721F721D50031240081247EAA1C71272D9126BB8CA
:203C600012626D1247EAA1C712709B1273E61274CC1247EAA1C71275F5125953C21E1247C0
:203C8000EAA1C71275F51250001247EAA1C71275F5122B4F1247EAA1C71275F51247EAA136
:203CA000C712709B1273E61258001274CC126399303222C2A8D234750AFF750B01750C0671
:203CC000750DBA750E07750FBE1276538E088F091271C2D2A81247EAA1C71272D9126BB8D7
:203CE0001255E012626DE56B601C156BC21EE56B600690069DE0600E9002B2E0F56BD21EC5
:203D00007565007566001247EAA1C712001E1247EAA1C712001E1264BFC21E303604D21EC9
:203D2000C21D1247EAA1C71272D9126F221247EAA1C712709B127530126399303222C2A87E
:203D4000D234750AFF750B01750C06750DBA750E07750FBE1276538E088F091271C2D2A807
:203D60001247EA806212709B1273E6125800126399303222C2A8D234750AFF750B01750CAA
:203D800006750DBA750E07750FBE1276538E088F091271C2D2A81247EA802C1272D9126B84
:203DA000B81255E0E56B601C156BC21EE56B600690069DE0600E9002B2E0F56BD21E756553
:203DC000007566001247EA80348032122FC1802D122FC18028122FC18023122FC1801E12AF
:203DE0002FC18019122FC18014122FC1800F122FC1800A8008800680048002800022619ED2
:203E0000A1C9A1CBA1D0A1D5A1DAA1DFA1E4A1E9A1EEA1F3A1F5A1F7A1F9A1FBA1FD61B2A3
:203E200061B461BC61C961D161D961EB61F581008139814A815A816881768183818E81992A
:203E400081A181DAA10BA113A127A132A165A19B850883850982AE83AF828E7A8F7B757C23
:203E600002757D40757E04123A5F8508838509827F2C1277F6AE83AF828E7A8F7B757C02BB
:203E8000757D44757E04123A5F750A01750B00E50BD394044002E1CBE50A850883850982F2
:203EA0007F04125FF0AE83AF828E108F11E50B7F04900256125FF0AE83AF828E128F1375A9
:203EC0001400751569120F8FE50A048508838509827F04125FF0AE83AF828E108F11E50BA4
:203EE0007F0490026A125FF0AE83AF828E128F1375140075156D120F8F7510007511697525
:203F0000120075136D751400751569120EDC75100075116975120275134075140275154008
:203F2000120EDCE50A850883850982FE7F2C1277F6EE7F04125FF0AE83AF828E108F11E5F7
:203F40000B7F04900256125FF0AE83AF828E128F13751400751569120F8FE50A8508838536
:203F60000982FE7F301277F6EE7F04125FF0AE83AF828E108F11E50B7F0490026A125FF048
:203F8000AE83AF828E128F1375140075156D120F8F75100075116975120075136D751400D4
:203FA000751569120EDC751000751169751202751344751402751544120EDCE50A2402F5EA
:203FC0000A780B740126F64002C18F22D218301816C218757A01757B97757C01757DDB7542
:203FE0007E04123A5F80E7223933313032372031353A3237033630362D303420202003FF1A
:20400000C2A81271C2D2A82230351FC235D234750AFF750B01750C06750DBA750E07750F04
:20402000BE1276538E088F091100E54F9044FB25E07381FA90069DE0602220211DD2217557
:204040000AFF750B01750C06750D9D750E07750FBE1276538E088F0911008057C221C222AC
:204060007422900069F0750AFF750B01750C00750D69750E07750FBE1276538E088F09750C
:204080000AA6750B04750C02750DE985080E85090F1276538E088F09750AA5750B04750C94
:2040A00002750DE585080E85090F1276538E088F09110081FAC221C222750AB8750B0275D5
:2040C0000C03750D09750E07750FBE1276538E088F09110081FAC221C2227422900069F09F
:2040E000750AFF750B01750C00750D69750E07750FBE1276538E088F09750A8B750B04757D
:204100000C02750DD585080E85090F1276538E088F09750A8C750B04750C02750DD98508FF
:204120000E85090F1276538E088F09110081FAC221C222742B900069F0750AFF750B01757C
:204140000C00750D69750E07750FBE1276538E088F09750A78750B02750C01750DCF8508BA
:204160000E85090F1276538E088F09750A7A750B02750C01750DD385080E85090F12765326
:204180008E088F09750A7B750B02750C01750DD785080E85090F1276538E088F09750A7664
:2041A000750B04750C01750DC385080E85090F1276538E088F09750A75750B04750C017504
:2041C0000DC785080E85090F1276538E088F09750A72750B01750C01750DCB85080E850960
:2041E0000F1276538E088F09750A74750B04750C01750DB785080E85090F1276538E088F3D
:2042000009750A73750B04750C01750DBB85080E85090F1276538E088F09750A71750B01AE
:20422000750C01750DBF85080E85090F1276538E088F09750A77750B04750C01750DDB859C
:20424000080E85090F1276538E088F09750AB8750B02750C03750D0985080E85090F12761A
:20426000538E088F09110081FAC221C222750AA8750B04750C02750DE5750E07750FBE12F7
:2042800076538E088F09110081FAC221C222750AA9750B04750C02750DE9750E07750FBE6E
:2042A0001276538E088F09110081FAC221C2227422900069F0750AFF750B01750C00750D21
:2042C00069750E07750FBE1276538E088F09750AA8750B04750C02750DE585080E85090FD3
:2042E0001276538E088F09750AA9750B04750C02750DE985080E85090F1276538E088F09DA
:20430000110081FAC221C22281FAC221C22281FA90069DE0602220211DD221750AFF750BA9
:2043200001750C06750D9D750E07750FBE1276538E088F0911008057C221C222742290002C
:2043400069F0750AFF750B01750C00750D69750E07750FBE1276538E088F09750AA6750B1F
:2043600004750C02750DE985080E85090F1276538E088F09750AA5750B04750C02750DE578
:2043800085080E85090F1276538E088F09110081FA90069DE0602220211DD221750AFF7577
:2043A0000B01750C06750D9D750E07750FBE1276538E088F0911008057C221C222742290A1
:2043C0000069F0750AFF750B01750C00750D69750E07750FBE1276538E088F09750AA675AA
:2043E0000B04750C02750DE985080E85090F1276538E088F09750AA5750B04750C02750DD2
:20440000E585080E85090F1276538E088F09110081FAC221C222750AB8750B02750C037571
:204420000D09750E07750FBE1276538E088F09110081FAC221C222750AA8750B04750C0210
:20444000750DE5750E07750FBE1276538E088F09110081FAC221C222750AA9750B04750CA0
:2044600002750DE9750E07750FBE1276538E088F09110081FA90069DE0602220211DD22188
:20448000750AFF750B01750C06750D9D750E07750FBE1276538E088F0911008057C221C215
:2044A000227422900069F0750AFF750B01750C00750D69750E07750FBE1276538E088F091B
:2044C000750AA6750B04750C02750DE985080E85090F1276538E088F09750AA5750B0475E7
:2044E0000C02750DE585080E85090F1276538E088F0911008004C221C2222201320134011F
:20450000B501D6212F4169418A41AB6104610A61106191811281338154817581F688050114
:204520007F04000001FFFFFFFF9830019B040000020400000AFFFFFFFF980600D798070073
:20454000F30400000398090083980D009F0400000404000005FFFFFFFF980600D7980700D8
:20456000F30400000398090083980D009F0400000404000006FFFFFFFF8845012B28850124
:204580004728C5016304000007800600D7800700F31815010F0400000880090083800D00BF
:2045A0009F182500BB040000090400000AFFFFFFFF8845012B2885014728C501630400000A
:2045C00007800600D7800700F31815010F0400001180090083800D009F182500BB04000077
:2045E000120400000AFFFFFFFF8845012B2885014728C5016304000007800600D780070071
:20460000F31815010F0400001780090083800D009F182500BB040000180400000AFFFFFFF8
:20462000FF9845012B3885014738C5016304000007980600D7980700F31815010F040000B9
:204640000C98090083980D009F182500BB0400000B0400000AFFFFFFFF9845012B3885010E
:204660004738C5016304000007980600D7980700F31815010F0400000C98090083980D006A
:204680009F182500BB0400000B0400000AFFFFFFFF9845012B3885014738C50163040000F7
:2046A00007980600D7980700F31815010F0400000C98090083980D009F182500BB0400003B
:2046C0000B0400000AFFFFFFFF98090083980D009F182500BB040000150400000AFFFFFF41
:2046E000FF980600D7980700F31815010F040000160400000AFFFFFFFF8845012B288501AC
:204700004728C501630400000D0400000AFFFFFFFF9845012B3885014738C5016304000073
:204720000EFFFFFFFF9845012B3885014738C501630400000FFFFFFFFF8845012B2885014A
:204740004728C5016304000010800600D7800700F31815010F0400000380090083800D00F9
:204760009F182500BB040000048830019B040000130400000AFFFFFFFF9830019B040000BD
:20478000140400000AFFFFFFFF98090083980D009F182500BB040000150400000AFFFFFF77
:2047A000FF890F0055FFFFFFFFFFFFFFFF47A94579452946F94739462146594691471147BE
:2047C0002545B145B1477946C946E145E94789C0E0C0F0C083C082C0D075D000125287D06F
:2047E000D0D082D083D0F0D0E032E563B40B057563008009E563C3940B5002056322FFFFB1
:204800007510017511B77512017513B7751400751569120FC17510017511BB7512017513D9
:20482000BB75140075156D120FC175100075116975120075136D751400751569120EDC757E
:204840001000751169121265757A00757B69757C01757DB7757E04123A5F7510017511C37C
:204860007512017513C3751400751569120FC17510017511C77512017513C775140075154A
:204880006D120FC175100075116975120075136D751400751569120EDC75100075116912DB
:2048A0001265757A00757B69757C01757DC3757E04123A5F757A01757BB7757C01757DC3B2
:2048C000757E04123B00B40112757A01757BC3757C01757DB7757E04123A5F9001B8E09034
:2048E000082DF09001B7E090082EF09001B9E070069001BAE0601F741490032DF0743390FC
:20490000032EF074F190032FF07484900330F074F1900331F02290082DE0FEA3E0FF9003C1
:204920005AE0FCA3E0FDEDD39FEC9E50026122900346E0FAA3E0FBEBD39FEA9E5002412C2E
:2049400090033AE0F9A3E0FCECD39FE99E404F900336E0FDA3E0FAEAD39FED9E40209003C1
:204960002D7401F074B390032EF074DF90032FF07404900330F074E0900331F0801E740281
:2049800090032DF074F390032EF074E090032FF07444900330F074E1900331F0412A9008D2
:2049A0002DE0FEA3E0FF90033EE0FCA3E0FDEDD39FEC9E4020740390032DF0743390032E65
:2049C000F074E290032FF07484900330F074E2900331F0805590082DE0FEA3E0FF9003425B
:2049E000E0FCA3E0FDEDD39FEC9E4020740490032DF0747390032EF074E390032FF074C411
:204A0000900330F074E3900331F0801E740590032DF074B390032EF074E490032FF07404B7
:204A2000900330F074E5900331F0612090082DE0FEA3E0FF900352E0FCA3E0FDEDD39FEC84
:204A40009E500241CB90034AE0FAA3E0FBEBD39FEA9E4020740690032DF074F390032EF09E
:204A600074E590032FF07444900330F074E6900331F0805590082DE0FEA3E0FF90034EE0F7
:204A8000FCA3E0FDEDD39FEC9E4020740790032DF074C890032EF074E690032FF074199010
:204AA0000330F074E7900331F0801E740890032DF0749E90032EF074E790032FF074EF9037
:204AC0000330F074E7900331F0805590082DE0FEA3E0FF900356E0FCA3E0FDEDD39FEC9E7C
:204AE0004020740990032DF0747390032EF074E890032FF074C4900330F074E8900331F088
:204B0000801E740A90032DF0744890032EF074E990032FF07499900330F074E9900331F07C
:204B2000A11990082DE0FEA3E0FF90036EE0FCA3E0FDEDD39FEC9E50028127900362E0FA87
:204B4000A3E0FBEBD39FEA9E404F90035EE0F9A3E0FCECD39FE99E4020740B90032DF07432
:204B60001E90032EF074EA90032FF0746F900330F074EA900331F0801E740C90032DF0746C
:204B8000F390032EF074EA90032FF07444900330F074EB900331F0812590082DE0FEA3E017
:204BA000FF900366E0FCA3E0FDEDD39FEC9E4020740D90032DF074C890032EF074EB900348
:204BC0002FF07419900330F074EC900331F0805590082DE0FEA3E0FF90036AE0FCA3E0FD0F
:204BE000EDD39FEC9E4020740E90032DF0749E90032EF074EC90032FF074EF900330F074DB
:204C0000EC900331F0801E740F90032DF0747390032EF074ED90032FF074C4900330F07419
:204C2000ED900331F0A11990082DE0FEA3E0FF900376E0FCA3E0FDEDD39FEC9E404F900384
:204C400072E0FAA3E0FBEBD39FEA9E4020741090032DF0744890032EF074EE90032FF0741C
:204C600099900330F074EE900331F0801E741190032DF0741E90032EF074EF90032FF07433
:204C80006F900330F074EF900331F0A11990082DE0FEA3E0FF90037AE0FCA3E0FDEDD39F34
:204CA000EC9E4020741290032DF074F390032EF074EF90032FF07444900330F074F0900345
:204CC00031F0805590082DE0FEA3E0FF90037EE0FCA3E0FDEDD39FEC9E4020741390032DBC
:204CE000F074C890032EF074F090032FF07419900330F074F1900331F0801E741490032D82
:204D0000F0743390032EF074F190032FF07484900330F074F1900331F0227400900071F0E9
:204D20007400900072F09001CFE0900073F09001D0E0900074F07400900075F07400900038
:204D400076F09001D3E0900077F09001D4E0900078F07510007511717512007513757514EC
:204D60000075156D120CAF7400900075F07400900076F09001D7E0900077F09001D8E09084
:204D80000078F0751000751171751200751375751400751569120CAFE56EB4FF028002C117
:204DA00026757A00757B6D757C02757D86757E04123A5F757A00757B6D757C02757D7E7550
:204DC0007E04123A5F757A00757B69757C02757D8A757E04123A5F757A00757B69757C0212
:204DE000757D82757E04123A5F757A01757BD7757C02757D92757E04123A5F757A01757BED
:204E0000D3757C02757D8E757E04123A5F757A01757BCF757C02757D96757E04123A5F8559
:204E20006D6EC227C1EF757A00757B6D757C02757D86757E04123B00B40112757A00757B5D
:204E40006D757C02757D86757E04123A5F757A00757B6D757C02757D7E757E04123B00B431
:204E60000212757A00757B6D757C02757D7E757E04123A5F757A00757B69757C02757D8A16
:204E8000757E04123B00B40112757A00757B69757C02757D8A757E04123A5F757A00757BCF
:204EA00069757C02757D82757E04123B00B40212757A00757B69757C02757D82757E04125E
:204EC0003A5F7510017511D375120275138E120EC57510017511D7751202751392120EC56B
:204EE0007510017511CF751202751396120EC5156EE56E6002E1BA740090006AF074009016
:204F0000006BF0740090006CF0E56D900069F075100075116975120275138E120CC875101D
:204F200000751169751202751392120CC8751000751169751202751396120CC890028FE0F7
:204F4000900291F090028EE0900290F0740090028FF0740090028EF0900293E0900295F007
:204F6000900292E0900294F07400900293F07400900292F0900297E0900299F0900296E0DA
:204F8000900298F07400900297F07400900296F075100275119675120275138E751402759C
:204FA000158E120CAF751002751196751202751392751402751592120CAF22900020E4F021
:204FC000900020E0C394A05032900020E0905E7B93FE900020E090042112783AEEF09000C7
:204FE00020E0905F1B93FE900020E09004F212783AEEF0900020E004F080C522FFFFFFFF77
:20500000302502418620240AD224756EFF756F0A01A67510017511D375120275139A7514A4
:2050200000751569120F0F757A00757B69757C00757D69757E04123A937510017511D7758B
:20504000120275139E75140075156D120F0F757A00757B6D757C00757D6D757E04123A93F4
:2050600090006AE0703090006BE0702A90006CE07024900069E0C3940A501B90006EE070DE
:205080001590006FE0700F900070E0700990006DE0C3940A40028008E56F6002156F80067C
:2050A000756EFF756F0A757A01757BD3757C02757D9A757E04123A5F757A01757BD7757CA4
:2050C00002757D9E757E04123A5FE56F60024186302805C228756EFF124D1AE56E60024187
:2050E0008675100275118675120275137E751400751569120F0F7510027511BD7512007596
:205100001369120F76300012757A00757B69757C00757D69757E04123A93757A00757B6988
:20512000757C02757DD1757E04123B00B401028002413175100275118A751202751382752B
:205140001400751569120F0F7510027511C1751200751369120F76300012757A00757B69B1
:20516000757C00757D69757E04123A93757A00757B69757C02757DD1757E04123B00B40116
:20518000028002412DD2257510027511BD75120275138E751400751569120F8F30001275DA
:2051A0007A00757B69757C00757D69757E04123A93757A00757B69757C06757D85757E044D
:2051C000123B00B401657510027511C1751202751392751400751569120F8F300012757A9A
:2051E00000757B69757C00757D69757E04123A93757A00757B69757C06757D85757E041275
:205200003B00B40126D227757A02757B8E757C02757DC5757E04123A5F757A02757B9275DC
:205220007C02757DC9757E04123A5F8002D2288002D228202850202721745D900069F0756C
:205240000AFF750B01750C00750D69750E07750FBE1276538E088F0980257403900069F07E
:20526000745090006AF0750AFA750B02750C00750D69750E07750FBE1276538E088F09C282
:20528000A81271C2D2A822C2ABC2A9C2AA758800758A00758C00123909E562B40A07E5639C
:2052A000C39402400280071239181277E722E562B40B07E563C394034002800712391812EA
:2052C00077E722E563D395624010E5622403D3956340071239181277E722A22AB35005A201
:2052E0002BB3400280071239181277E722A22DB35005A22EB3400280071239181277E722FA
:20530000202A02618DE54490546125E073807C758A33758CF1758B84758DF1806E758A1DCC
:20532000758CFB758B70758DFB8060758A33758CF1758B84758DF18052758A41758CED7514
:205340008B94758DED8044758A41758CED758B94758DED8036758A33758CF1758B84758D6A
:20536000F18028758A33758CF1758B84758DF1801A758A33758CF1758B84758DF1800C75C3
:205380008A33758CF1758B84758DF1814FE54490547525E073814F90032EE0F58A90032F6B
:2053A000E0F58C900330E0F58B900331E0F58D814F758A1D758CFB758B70758DFB814F908E
:2053C000032EE0F58A90032FE0F58C900330E0F58B900331E0F58D8076758A41758CED7538
:2053E0008B94758DED8068758A41758CED758B94758DED805A90032EE0F58A90032FE0F575
:205400008C900330E0F58B900331E0F58D804090032EE0F58A90032FE0F58C900330E0F51C
:205420008B900331E0F58D802690032EE0F58A90032FE0F58C900330E0F58B900331E0F516
:205440008D800C758A33758CF1758B84758DF1123918D2AB75904F853E90853F9075885070
:2054600022610D610F611D612B61396147615561636171617F6195619761B161BF61D961F9
:20548000E761F5810F812981437400900071F07400900072F09001CFE0900073F09001D072
:2054A000E0900074F07400900075F07400900076F09001D3E0900077F09001D4E0900078BD
:2054C000F075100075117175120075137575140075156D120CAF7400900075F07400900022
:2054E00076F09001D7E0900077F09001D8E0900078F075100075117175120075137575143D
:2055000000751569120CAF7510027511C575120075136D751400751571120F0F75100275CD
:2055200011BD751200751371120F767510027511C9751200751369751400751575120F0F80
:205540007510027511C1751200751375120F767510027511CD751200751375120F767510E8
:20556000007511717512007513757514027515D5120EDC7510027511C97512007513697507
:205580001400751571120F0F7510027511C1751200751371120F767510027511C57512008E
:2055A00075136D751400751575120F0F7510027511BD751200751375120F7675100375114B
:2055C00019751200751375120F767510007511757512007513717514027515D9120F0F2257
:2055E000E565701874009002A2F074009002A3F074009002A4F074009002A5F0740090006F
:2056000069F0740090006AF0740090006BF0757A02757B4C757C06757D79757E04123B00A1
:20562000C0E0757A02757B4C757C06757D75757E04123B00C0E0D006EE64026003C380018A
:20564000D392F0D006EEB40103D38001C372F0501590024FE0600F75100675117175120260
:2056600075134C120EF3757A02757BA2757C06757D79757E04123B00C0E0757A02757BA2F7
:20568000757C06757D75757E04123B00C0E0D006EE64026003C38001D392F0D006EEB40129
:2056A00003D38001C372F050159002A5E0600F7510067511717512027513A2120EF30565D1
:2056C000E56590006CF075100075116975120675131D75140075156D120CAF751002751194
:2056E000A275120275134C751400751569120F0F75100075116D751200751369120F767503
:2057000010007511697512027513A2120EC530000F7510067511717512027513A2120EC599
:20572000757A02757BA2757C02757DE5757E04123A5F229006BBE4F09006BCE4F0A3F090EA
:2057400006BEE4F0900020E4F0900020E0902E3E93604E900020E0902E3E93FE900327E0A9
:20576000B50636900020E0902E3E939006BBF0900020E0902E7512780FE493F87401939075
:2057800006BCC8F0A3C8F0900020E07F04902EE3125FF0E4939006BEF0900020E004F08060
:2057A000A89006BBE060579006BBE0646460079006BBE0B4B3259006BBE0F50A9006BEE0D8
:2057C000F50B9006BCE0F50CA3E0F50D750E07750FBE1276AF8E088F0980239006BBE0F517
:2057E0000A9006BEE0F50B9006BCE0F50CA3E0F50D750E07750FBE1276538E088F0922FFBD
:20580000E566701874009002A6F074009002A7F074009002A8F074009002A9F0740090003B
:2058200069F0740090006AF0740090006BF0757A02757B50757C06757D79757E04123B007B
:20584000C0E0757A02757B50757C06757D75757E04123B00C0E0D006EE64026003C3800164
:20586000D392F0D006EEB40103D38001C372F05015900253E0600F7510067511717512023A
:20588000751350120EF3757A02757BA6757C06757D79757E04123B00C0E0757A02757BA6C9
:2058A000757C06757D75757E04123B00C0E0D006EE64026003C38001D392F0D006EEB40107
:2058C00003D38001C372F050159002A9E0600F7510067511717512027513A6120EF30566A6
:2058E000E56690006CF075100075116975120675131D75140075156D120CAF751002751171
:20590000A6751202751350751400751569120F0F75100075116D751200751369120F7675D8
:2059200010007511697512027513A6120EC530000F7510067511717512027513A6120EC56F
:20594000757A02757BA6757C02757DE9757E04123A5F22125489301A06D21FC21A4176204B
:20596000230221EE7510027511DD7512027513D5751400751569120F0F300012757A0075D1
:205980007B69757C00757D69757E04123A93757A00757B69757C06757D95757E04123B00F7
:2059A000B40204D21F80457510027511E17512027513D9751400751569120F0F300012753C
:2059C0007A00757B69757C00757D69757E04123A93757A00757B69757C06757D95757E0415
:2059E000123B00B40204D21F8002C21F41767510027511DD7512027513D575140075156949
:205A0000120F0F300012757A00757B69757C00757D69757E04123A93757A00757B69757C71
:205A200006757D99757E04123B00B40204D21F80457510027511E17512027513D9751400C0
:205A4000751569120F0F300012757A00757B69757C00757D69757E04123A93757A00757B98
:205A600069757C06757D99757E04123B00B40204D21F8002C21F301F24757A02757BD5754B
:205A80007C02757DDD757E04123A5F757A02757BD9757C02757DE1757E04123A5F2275104E
:205AA000017511B77512017513B7751400751569120FC17510017511BB7512017513BB757C
:205AC000140075156D120FC175100075116975120075136D751400751569120EDC751000EC
:205AE000751169121265757A00757B69757C01757DB7757E04123A5F7510017511C3751253
:205B0000017513C3751400751569120FC17510017511C77512017513C775140075156D129F
:205B20000FC175100075116975120075136D751400751569120EDC75100075116912126530
:205B4000757A00757B69757C01757DC3757E04123A5F9001B8E090082BF09001B7E0900818
:205B60002CF09001B9E0702C9001BAE0702690082BE0FEA3E0FF900332E0FCA3E0FDEFC38C
:205B80009DEE9C400F900380E0FAA3E0FBEFD39BEE9A4009740C90023FF0122FC19001C45E
:205BA000E090082BF09001C3E090082CF09001C5E0702C9001C6E0702690082BE0FEA3E0A7
:205BC000FF900332E0FCA3E0FDEFC39DEE9C400F900380E0FAA3E0FBEFD39BEE9A40097470
:205BE0000E90023FF0122FC12275100275110775120275134C751400751569120F0F757AA6
:205C000000757B69757C00757D69757E04123A93757A00757B69757C03757D23757E0412AF
:205C20003B00FEE568C3956A5003C38001D392F0EEB40203D38001C372F05062756800E59C
:205C400068D3956A5026757A02757B4CE5687F049001DF125FF0AE83AF828E7C8F7D757E5B
:205C600004123A5F7868740126F650D37568017400900069F0740090006AF0740090006BD9
:205C8000F0E56A90006CF075100275114C75120075136975140275150B120F8FA131E56819
:205CA0007F049001DF125FF0AE83AF828E108F1175120275130B120EF375100275114C75F3
:205CC000120275130B120EC57400900069F0740090006AF0740090006BF0E56A90006CF0E3
:205CE00075100075116975120275130B751402751507120CAF757A02757B4CE5687F04909E
:205D000001DF125FF0AE83AF828E7C8F7D757E04123A5F0568E568C3956A40037568007517
:205D20007A02757B07757C02757D4C757E04123A5F227510027511377512027513507514CD
:205D400000751569120F0F757A00757B69757C00757D69757E04123A93757A00757B6975F9
:205D60007C03757D23757E04123B00FEE569C3956A5003C38001D392F0EEB40203D3800156
:205D8000C372F05062756900E569D3956A5026757A02757B50E5697F0490020F125FF0AE06
:205DA00083AF828E7C8F7D757E04123A5F7869740126F650D37569017400900069F0740032
:205DC00090006AF0740090006BF0E56A90006CF0751002751150751200751369751402756A
:205DE000153B120F8FC17AE5697F0490020F125FF0AE83AF828E108F1175120275133B1297
:205E00000EF375100275115075120275133B120EC57400900069F0740090006AF074009034
:205E2000006BF0E56A90006CF075100075116975120275133B751402751537120CAF757A04
:205E400002757B50E5697F0490020F125FF0AE83AF828E7C8F7D757E04123A5F0569E56957
:205E6000C3956A4003756900757A02757B37757C02757D50757E04123A5F22D6FFFFFF80DB
:205E8000FEFF0005EEFFFF210B0000E4FDFFFFA8740000CB320000DD0400001FFEFFFF9B59
:205EA00075000057EDFFFFA5F9FFFF859C0000CE00000145FEFFFF91010000BFA7FFFF80E8
:205EC00089FFFFF4010000A50400006F13000052750000000000010B000000D6FFFFFF0075
:205EE000000004CAFFFFFFAAFFFFFF0000000C81000000C8FFFFFF000000146D010000B4A8
:205F0000FFFFFF000000280400000001000000000000403E000000F0FFFFFF22000000DFEB
:205F2000F7FF00D9E4FFFF5F0B000072FEFFFFD66F0000FB3200005105000056FEFFFF437B
:205F400077000050EDFFFFDFF9FFFF0EA600006407000139FEFFFFDF00000088A7FFFF3127
:205F600081FFFFAC010000210500008B1300002677000000000001560000004400000000F9
:205F8000000004D4FFFFFFE0FFFFFF0000000C43000000BBFFFFFF00000014A0000000CCC8
:205FA000FFFFFF000000280400000000000000000000403E000000EEFFFFFF750800E508E5
:205FC000D3940D502AE508903FE893FEE50890000012783AEEF0E508903FF593FEE50890C0
:205FE000001012783AEEF07808740126F650CF227E0012782CEF2582F582EE3583F583221C
:206000007510057511F9751202751340120FA87510057511F9751202751344120FA87510B1
:2060200002751140751202751340751400751569120F8F7510027511447512027513447500
:20604000140075156D120F8F75100075116975120075136D751400751569120EDC75100098
:20606000751169121297751000751169751202751340751402751540120CAF751000751184
:2060800069751202751344751402751544120CAF757A02757B40757C00757D69757E0412A6
:2060A0003A93757A00757B69757C06757D19757E04123B00B4022F900243E05480B48014CF
:2060C000757A06757B2D757C02757D40757E04123A5F8012757A06757B19757C02757D4032
:2060E000757E04123A5F757A02757B44757C00757D69757E04123A93757A00757B69757C7E
:2061000006757D19757E04123B00B4022F900247E05480B48014757A06757B2D757C0275F6
:206120007D44757E04123A5F8012757A06757B19757C02757D44757E04123A5F22757A028E
:20614000757B40757C00757D69757E04123A93757A02757B44757C00757D6D757E04123A35
:2061600093757A00757B69757C00757D6D757E04123B00E53D64026004E53D701975100292
:20618000751140751202751344751402751548120CAFD219801775100275114475120275E9
:2061A0001340751402751548120CAFC219126D2C757A02757B40757C05757DED757E0412DD
:2061C0003B00E53DB4015F301917751002751148751206751361751402751548120F0F8016
:2061E00043757A02757B44757C05757DED757E04123B00E53DB40117751002751148751254
:2062000006751351751402751548120EDC80157510027511487512067513717514027515C1
:2062200048120EDC8046301917751002751148751206751341751402751548120F0F802C10
:20624000757A02757B44757C05757DED757E04123B00E53DB4011575100275114875120632
:20626000751351751402751548120EDC22900253E0B40312900252E0C394204009900252D4
:20628000E0D39428400280177510027511B575120275134C7514027515E5120EDC612F759C
:2062A000100275115075120875132775140875152312161E75100375110575120375130D02
:2062C000751400751569120EDC751008751123751200751369120C9675100275114C751204
:2062E00000751369120EC575100875112375120875132775140075156D120CAF751003750A
:20630000111575120075136D120F7675100075116975120075136D120EC57510027511B5AD
:2063200075120075136D7514027515E5120EDC9002E8E0D3947F400F751006751171751253
:20634000027513E5120EC5757A02757BE5757C06757D71757E04123B00C0E0757A02757B04
:20636000E5757C06757D71757E04123B00C0E0D006EE64026003C38001D392F0D006EE70A0
:2063800003D38001C372F0500F7510067511717512027513E5120EF322303314C233757A1A
:2063A00002757BE9757C06757DB6757E04123A5F757A02757BE9757C06757DAE757E041257
:2063C0003B00C0E0757A02757BE9757C06757DAA757E04123B00C0E0D006EE64016003C352
:2063E0008001D392F0D006EEB40203D38001C372F050417510067511B67512027513E9750A
:2064000014067515B2120F0F7510067511317512067513B27514067515B2120F8F751002EB
:206420007511E97512067513B27514067515B2120EDC8012757A02757BE9757C06757DB268
:20644000757E04123A5F757A02757BE9757C06757DB6757E04123A5F757A06757BB2757C07
:2064600006757DA2757E04123B00B40113303004C232800A74619006BAF0D230D232803EBB
:20648000757A06757BB2757C06757DA6757E04123B00B40213303104C232800A746290067A
:2064A000BAF0D231D2328016A2307231500EC230C231D23274609006BAF08002C2322275B8
:2064C0007A03757B09757C00757D69757E04123A93757A02757BAA757C00757D6D757E0452
:2064E000123A9375100075116975120075136D751400751569120F0F300012757A00757B00
:2065000069757C00757D69757E04123A93757A00757B69757C02757DAE757E04123B00B41D
:206520000203756700E567701874009002AAF074009002ABF074009002ACF074009002AD10
:20654000F07400900069F0740090006AF0740090006BF00567E56790006CF0751000751182
:206560006975120675131975140075156D120CAF7510027511AA7512037513097514007567
:206580001569120F0F75100075116D751200751369120F767510007511697512027513AA97
:2065A000120EC5757A02757BAA757C03757D09757E04123A5FE56B601F156BC21DE56B70EC
:2065C000179002B2E0F56BD21D756700E54FB40C07D2369002B2E4F022127754757600C28E
:2065E0003A1266A21277391277171266A21277398575731277451266A212773912771A123D
:2066000066CC203C02B23A1266ECA2378238923D1266DBA23A923D1266DB203A0D127710E7
:20662000E57604F576B405B78009C23AE57314F57370C322757600AD78C23A9007BEE578B4
:206640002582F582E5833400F583E0F5751266B90578A3E0F575AB751266B9EBFE2578F557
:20666000789007BEE5782582F582E5833400F583E0F5751266B91578A23A923DC23A126697
:20668000DB1266CC1266CC203C0E8D78E57604F576B405028004809FDBC7EE2578F5780561
:2066A00078227A087575001266CC303C02B23AE575A23C13F575DAEF227A08E57513F5753D
:2066C000923D5002B23A1266DBDAF02220B2FDA2B0923CC2B130B2FDD2B12220B1FDA23DDB
:2066E00092B0C2B230B1FDD2B0D2B222C237C238750800E508902E3E937002E1F39006BF57
:20670000E0FEE508902E3E93B506028002E1EF850872E5087F04902EE4125FF0E493B40172
:20672000589006C0E0FEE5088E047F04902EE3125FF0ECFEE493FFEEB50702D2379006C15D
:20674000E0FEE5088E047F04902EE5125FF0ECFEE493FFEEC39F401B9006C1E0FEE5088E9A
:20676000047F04902EE6125FF0ECFEE493FFEED39F40028002D23880759006BFE064916080
:20678000079006BFE0B4931F9006C0E0FEE5088E047F04902EE3125FF0ECFEE493FFEEC30E
:2067A0009F5002D237801C9006C0E0FEE5088E047F04902EE3125FF0ECFEE493FFEEB50701
:2067C00002D2379006BFE0B4FA22750800E508902FBF9360159006C1E0FEE508902FBF9386
:2067E000B50603D23822050880E38002D238220508C1F322EF2582F582EE3583F58322FF62
:20680000757A02757B40757C02757D56757E04123A5F757A02757B44757C02757D6A757E13
:2068200004123A5F750800E508D3940340022102751002751156E5087F0490026A125FF040
:20684000AE83AF828E128F13751400751569120F8F75100275116AE5087F04900256125F28
:20686000F0AE83AF828E128F1375140075156D120F8F75100075116975120075136DE50877
:20688000047F04900256125FF0AE83AF828E148F15120EDC75100275116AE5087F0490020B
:2068A0006A125FF0AE83AF828E128F13751400751569120F8F751002751156E5087F0490DA
:2068C0000256125FF0AE83AF828E128F1375140075156D120F8F75100075116D75120075B7
:2068E0001369E508047F0490026A125FF0AE83AF828E148F15120F0F7808740126F6400220
:20690000012722750800900254E0700221AC751002751148E50890047912783AAE83AF8236
:206920008E128F1375140075156D12167E75100075116D75120275134475140275154012BB
